:020000021000EC
:100000006F90820E000000000018011800280128DF
:100010000228032800290129022903290429052986
:10002000062907290829002A012A022A032A042A64
:10003000052AA62AB4A9030046260100D8030020F9
:100040002204002094030020820300204A030020A1
:10005000D62701000228010002290100142B01000B
:100060009E2B0100BC240100E0230100522401006A
:100070000C240100D02F01006E050020AC270100E8
:10008000462D0100F2410300E843030060440300F1
:10009000D6FD0200EAFD02001A5402006647020083
:1000A000F03B03007C2D01003E060300A8DB0100AD
:1000B00036DC01008EDC01001C35010068350100D2
:1000C000D233010004990100FA9301002EA201002D
:1000D000FEA50100AAA9010056860100F4850100D1
:1000E000DE890100A2860100CA8501004E8601005A
:1000F0007C850100268701007E8701002E87010094
:1001000032870100CC87010086870100B887010093
:10011000DA8C0100E28C0100228701002A870100AD
:10012000CA870100DE8C01007A880100168E01006A
:10013000F6B7010074B80100B2B801000C9B0100D1
:100140001E9B0100409B0100F67F0100DA80010048
:100150004281010064530100AA4E0100167601009D
:10016000284F01005E71010092740300A07103002A
:10017000587B03000E8C0300DE8A0300E28E03002E
:10018000CA8E0300DA8E0300828F0300DA5F030059
:10019000128F03008C820300B2820300DA82030014
:1001A000F28F0300D88803006E880300629003007A
:1001B0003C620300D862030000630300A2620300F4
:1001C000D21D03006A0A0300120E0300640B030031
:1001D00060130300903C0300763B03000E600300B5
:1001E000D630010086FF02001E060300160703003A
:1001F000603303000434030012360300F29E010052
:10020000801D0300E0130300181A03007416030096
:100210001A0A03001C2C010098FF0200068F03003D
:10022000CE8E0300D68E0300D28E0300A22A0100D8
:100230003E9C0100CC1F0300B421030014220300E4
:10024000967B03000A8F03000E8F0300000000005E
:10025000000000000000000000000000000000009E
:10026000000000000000000000000000000000008E
:10027000000000000000000000000000000000007E
:1002800021670907AA87639EE50037270020834678
:10029000375F3727002003477733014563EEE60CCD
:1002A00082800145E9CFE1CD8D07C207C183F19B73
:1002B000C207C18313074003636CF702372700208E
:1002C0000325872D372700208326072D6397A60255
:1002D0003727002003278735014555C34111C20741
:1002E00006C60545DD8D0297B24001454101828079
:1002F000372700200325472DF1B7035765003DEB55
:10030000035745006368F706B72600203306F74019
:1003100021489386062E6378C8028328050003D8F7
:100320004600138687001D8F2A9661172312E60068
:10033000232016012313060010C12312F500130712
:1003400088FF2392E60003D746002313B500B307C6
:10035000F7402392F600A1678907639BF500B72752
:1003600000209387875E03C7B7000507A385E700D2
:1003700021058280084199BF01459DF782808280D6
:1003800009CDB727002003A3872DB727002083A816
:10039000072D81469A8763E31701828003A807002F
:1003A0006368F50C6366A80C13878700E367E5FEB6
:1003B00003D66700216793051700631DB60837262B
:1003C00000200347461C05072302E61C37260020B1
:1003D0001305062E83D547000357450023930700D6
:1003E0001306062E2E97420741832312E5006387EA
:1003F0006702372500200325452D6301F50203D54B
:10040000660009ED83D7460023A006012107BE95AB
:10041000A1052392B6002312E600B6879843E30EA7
:1004200017F7B726002083A6462DE308D7F6835694
:100430006700A5F683D64700835547001843A106F9
:10044000AE962392D70098C383574600A107231284
:10045000F60082800907E31BE6F637270020130722
:10046000875E0346B7003DD27D16A305C700B9BF1E
:10047000BE86C2870DB701114AC8372900209307ED
:10048000895E06CE22CC26CA03C77700914763E473
:10049000E710B727002083C74763918BEDEFB724A0
:1004A00000209387042E83C61700B727002003A6D9
:1004B00007321309895E81479384042E63C6D706E9
:1004C000372400209307843283C75701D84413048C
:1004D00084326362F70C6800975002E0E7802009DD
:1004E000FD576308F50C83475401324763F5E70A6B
:1004F000D84463430704B727002083A7C7368297F1
:100500003247DC446373F700BA8703475401998F7D
:100510003E958307640163C60702B707C0A86362FC
:10052000F502B707405761A013971700329703579A
:10053000070035E3850759B70307640163530706CE
:100540001D8D8327890199CBB727002083A6876457
:100550003707CDFF7D179C46F98F9CC619E13705FB
:10056000C0A85C50829701ED832789018DC7970051
:1005700003E0E780C055970003E0E780C0BD832714
:10058000890191CBB727002003A78764B706330002
:100590001C47D58F1CC7F2406244D24442490561D2
:1005A0008280E37FF5F83707C0A8B307F7403E9590
:1005B00049BFDC44E3C107FEB727002083A7C73645
:1005C000829703475401DC4499B719CD91CD09CEE8
:1005D00081473387F500834607003307F500850719
:1005E0002300D700E397C7FE828019C991C909CAC1
:1005F000910583A7C5FF11057D16232EF5FEC5BF06
:10060000828001C919C62A960505A30FB5FEE31D10
:10061000A6FE828081473307F5000307070019E330
:100620003E8582808507C5BF01112E8626CAAA8411
:10063000131506019305F004418122CC06CE32C683
:1006400081312A8401C53246A68541372285F24090
:100650006244D24405618280854715C18DC105C2BF
:100660008147B306F5003387F50083C606000347CC
:1006700007006398E6008507E315F6FE85473E858B
:1006800082808147EDBF9307F6FFBE952A966313DC
:10069000C5008280FD1583C715000505A30FF5FE73
:1006A000FDB7AA87014581CF09CE3E96850703C7CE
:1006B000F7FF6317B700E31BF6FE054582808280D3
:1006C00001458280797152CC372A002022D403243C
:1006D0004A3206D626D24AD04ECE56CA5AC85EC62E
:1006E00062C479C4B7290020372900208144B72B80
:1006F0000020938989321309092EB70AC0A8370B45
:1007000040578357240089EF5C4489E82322FA325A
:10071000032CC4002285AD31628441A0DCC4CDBF6E
:1007200083A7CB3682971C44636DF5023307F540EF
:10073000635C070203A7490209CF03876901635D70
:1007400007003387A7408327C9006374F700232677
:10075000E900A284404491A00147E386A7FED69712
:10076000CDB7898F63D80706232609008355240057
:1007700003450400972001E0E780202E5C405844A8
:10078000A1C71444B6978386690163C5060063E375
:100790005701DA971CC4A2843A8425F4B7270020B5
:1007A0009387072ED847914663F0E6047117D8C7A0
:1007B000B250225492540259F249624AD24A424BF0
:1007C000B24B224C4561828081E42322EA3289B710
:1007D000D8C43DBF03A749022DDF0327C900E3FAB0
:1007E000E7F62326F900B5B723A60700D1B7011114
:1007F0004AC8372900208327493006CE22CC26CA92
:100800004EC652C481C782972322093093074930CC
:10081000DC43372400201304443091C3829783279C
:10082000493063980712B72400209387845E83C7FA
:1008300057009384845E858B8DC303C77400A382A5
:100840000400914763FBE700EF10801E83C774002C
:10085000F9178A07A2979C438297B727002083C77E
:100860004763918B99C3EF10900E1C4491C38297FC
:1008700037240020B72700209306042E03A7073251
:1008800003C616003E8A9309042E8347042E9396CE
:100890001700BA9683D60600A1CE8347042E63E1E3
:1008A000C706832749302300042EC5E783C7940079
:1008B00091CB83C7740099E7A3840400970003E0F9
:1008C000E78060CDB727002083A7C736D9C3FD577F
:1008D00023A6F900C53BB727002083A7C734B5CBB3
:1008E0006244F240D2444249B249224A056161B6AB
:1008F000850793F7F70F2300F42EE3E8C7F871BFDD
:1009000086073E9783550700231007000345042EF2
:10091000B727002083A7073013172500BA979C43F9
:1009200082978347042E1397170083270A32BA97BA
:1009300003D70700598D2390A7008347042E81C752
:1009400085072300F42E0347042E83C71900E37A9A
:10095000F7F4F2406244D2444249B249224A056166
:100960008280AD6737C70040BD072326F7200F10F0
:100970000000B72700209387072E884F83278726FC
:10098000BD66BD0693C7F7FF99836A052326D72066
:100990005D8D82804111B7170040985F3AC6945F21
:1009A0003247E39CE6FE324541018280011122CCB0
:1009B000372400201304044C26CA4AC84EC652C429
:1009C00006CEAA84130A84019309250005498347AA
:1009D000B40F89EF2104E31C44FF0145F240624457
:1009E000D2444249B249224A056182800347C40F7A
:1009F00083C71400E310F7FE1946CE851305D40F04
:100A0000A139E31925FDD9BF03270511630207109A
:100A1000411122C406C68347C500834565042A8464
:100A200093F7C70F2306F500834697000356C700C8
:100A300013958601618563F3C506635C0504034570
:100A4000870093F6F607A304D700054693E6270030
:100A50006314C50093E617002306D4005C4389079E
:100A60005CC3A30AB400B727002003A5C75F2E8686
:100A70004C430905993E8327041103465401D4438E
:100A800003D7C700B296118FD4C32396E7008947D6
:100A900015A893E717002306F400E1B79376F60F45
:100AA000635B050403458700854513E6270063144F
:100AB000B50013E617002306C400A30AD400A3045C
:100AC00007008547A30CF4008327041101459C43CC
:100AD00099CFB72700200347A40283C7A7336378C1
:100AE000F7008347C40093E707012306F400B240F0
:100AF00022444101828093E717002306F400A30AF1
:100B0000D400A3040700B727002003A5C75F8DB753
:100B100005458280B727002083A7875D411122C445
:100B200006C6858B2A84DDEB4165130525F59760A4
:100B300002E0E780E0A95DC18347A5002315F50029
:100B400083278411B5E7232CA410232EA4108547F6
:100B5000231DF4022320050083476401544123161A
:100B6000F5000347D4002304E5000547A304E5008E
:100B700037270020032707601385170215811C43C0
:100B80007D151375F50F9CC25C43DCC21C479CC6E7
:100B90005C47DCC61C4B9CCA5C4BDCCA1C4F9CCE21
:100BA0005C4FDCCE19CD9386060213070702C1BF46
:100BB0008327C41188C38357A403232EA410850759
:100BC00041BFB72700209387074C03D7A70005072D
:100BD0002395E700B2402244410182808347C4004C
:100BE00023090400054593C747002306F400DDB739
:100BF0008347E50193F7E70F91CB014582800145DB
:100C0000B240224492440249410182808347F50167
:100C1000EDF7834625010347C50089CAB7270020A1
:100C20000346A50283C7B7336367F60093770701CE
:100C3000E9D7814789C6418B8357C51A01C7035736
:100C4000051BBA97DDDB4111372700209306873259
:100C500006C622C426C24AC083C66601130787326D
:100C6000139686016186635B06049387C71313D4CA
:100C70005700B72700208344970183A6C7547D59A6
:100C8000B705C0A883A7860803D7E607635A0604FA
:100C90003387E740637327013A899442E5F6B72723
:100CA000002083A7C7368297E36BA9F43305A940D8
:100CB0002694333485001345140099B7858A9387A9
:100CC000C71289CA8A071384F7039307D0073354DE
:100CD000F40245B786071384F7019307D003C5BF15
:100CE000E3F8E7FAAE976DB7B72600209387064C76
:100CF00003A7C7086303074C797126D2B7240020E5
:100D00009387843206D622D44AD04ECE52CC56CACD
:100D10005AC85EC69386064C8388670183A5460938
:100D200001457D58938484323703C0A80326870881
:100D30008357E70763DE0810B307F64063F5070142
:100D4000BA853E880545184375F319C123AAB6082C
:100D500003A446090569B7290020370AC0A8B70AC5
:100D60004057054B1309B94783A7C936832B84081D
:100D700082976375753383C794010357E407B38B78
:100D8000AB40BA9763E9772583576403A30E040049
:100D900022858507231BF40283478413D5CFD121F5
:100DA0002285975002E0E780E0A741E9838664014D
:100DB00023050402832784080357E40763D0060A47
:100DC0003387E740032644082320E408B29763C929
:100DD00006003707C0A863E5E70037074057BA9712
:100DE0000347B4002324F40885456311B7088357EB
:100DF00084078356240363E4F61683460401639054
:100E0000E61603270411014955E70327C4095DE3EA
:100E10000347340145E38346F4001307000C639B4A
:100E2000E608B387C7020327C408B3D7E70203C79E
:100E300084010507BA97231FF406B2502254925436
:100E40000259F249624AD24A424BB24B4561828012
:100E5000E374F6EE1A96CDB5952699B7E3F2E7F668
:100E60003706C0A83E963307E640A9BF014939E3DB
:100E70000345C40121C103566403035984031307C6
:100E80000002330926413309A90242091359090115
:100E9000637227031387170063CA0600B706C0A84A
:100EA0006366D7003707405705073E972324E408B9
:100EB000231CC40283A7C93682972A8A83A7C9360E
:100EC0008297E30D45FF83A7C936032A040882975A
:100ED00083C764011397870161876354070833054B
:100EE000AA405DCD83264408637CD50A6351070878
:100EF00016053727002083264760B567BD07DCC687
:100F00000F100000832747600967930600F898C711
:100F1000372700201307875E4A952302D70006056E
:100F20003D67E8D33D07D8C797F002E0E780E0636C
:100F300097F002E0E780E06F0347B4008547814502
:100F40006315F70437F502001305450E972001E0FD
:100F5000E78000F7930700FD2307F400F9BD01497E
:100F600091BFE37EAAF6B706C0A8369A8DBF858BDF
:100F700099C79307803E3305F50215819DBF9307FE
:100F8000D0033305F5020581ADB73785020013059F
:100F90002566972001E0E780A0F2930710FC6DBF63
:100FA0000347B400854703A304036317F70095457F
:100FB000E30503E8154529A0E30103E89545194534
:100FC0002254B25092540259F249624AD24A424BD8
:100FD000B24B4561028363D40B06835764038507D4
:100FE000231BF4028347841399E32285C12A2285B7
:100FF000975002E0E7800083032744088327840892
:10100000BA97038764016345070063E34701D697F6
:101010002324F4088347B40063976701228597E08F
:1010200002E0E780A0CF8347D40185458507A30E62
:10103000F4009C58E38A07D21545829735B303C75D
:1010400064018357440393168701E1868E0763D7B3
:1010500006021307204EB387E7029583E3FF77DD8F
:10106000A1452285974002E0E78040732302A40255
:1010700003A304038945E31F03F2C1B3058B11C722
:1010800013078002B387E702D1BF05671307B7478D
:10109000B387E702938707049D83C9B703C7640139
:1010A00083574403B30B754193168701E1868E077E
:1010B00063DE060A1307204EB387E702958363FEBB
:1010C000FB0C83A7C936829783576403AA8B8507D5
:1010D000231BF4028347841399E32285C5202285CC
:1010E000974002E0E7800074E31905D40327440821
:1010F00083278408BA97038764016345070063E385
:101100004701D6972324F4088347D40113F7070F28
:101110003DCB2285974002E0E7802024A30E040007
:1011200083278408E3FFFBF883568407832744085A
:101130000327C408B387F602B3D7E70203C78401C5
:101140001107BA97231FF4068347B400639167051C
:1011500083572403E3FAD7C0228597E002E0E780B3
:10116000E0BB9C58E38207C08D45F9B5058B11C7DC
:1011700013078002B387E70299B7B38727039387E2
:1011800007049D832DBF8507A30EF40051BF9C5813
:10119000E38C07BC8D4519454DB5E3C00BCAA1458D
:1011A0002285974002E0E780605F2302A40203A348
:1011B0000403E30403C89145F5BB8280797126D20C
:1011C00006D622D44AD04ECE52CC56CA5AC85EC693
:1011D000834795020344F512AA843E941374F40FD6
:1011E0009307400263F687001304B4FD1374F40FF1
:1011F00003AA041383AA4413A38784122286528568
:10120000D685978003E0E780001F058915E503CBAD
:10121000541201498149337B6403930B50024A867F
:101220005285D685978003E0E780E01C058915C5C7
:10123000639169031374F90F23878412B250225407
:1012400092540259F249624AD24A424BB24B45612A
:1012500082808509E20993D989410509E31179FD65
:10126000E1BF8327050903566503797193D607010A
:10127000BD8EC206C182358E1357764093575640B5
:10128000898B058B5D8F93573640918B5D8F93577C
:101290001640A18B5D8F93171600C18B5D8F93173E
:1012A000360093F707025D8F93175600935586001B
:1012B00093F707041E065D8F1376F60F518F93D7B1
:1012C000554013D63540118A898BD18F13D675407E
:1012D000D18F13D61540218AD18F13961500418ADC
:1012E000D18F1396350013760602D18F13965500D1
:1012F000137606049E05D18F93F5F50FCD8FA207C7
:1013000045465D8F3307C70222D42A8426D252CCA9
:1013100056CA032A0413832A44135AC806D636979A
:101320004207418393577740135557400989858B6E
:10133000C98F135537401189C98F1355174021891B
:10134000C98F131517004189C98F131537001375FD
:101350000502C98F131557009355870013750504AF
:101360001E07C98F1377F70FD98F13D5354013D7C1
:1013700055401189098B498F13D57540498F13D575
:1013800015402189498F139515004189498F13957F
:10139000350013750502498F139555001375050423
:1013A0009E05498F93F5F50F4D8F2207D98FB3878F
:1013B000C7024AD04ECE5EC662C4B697C207C1838A
:1013C00013D7774013D557400989058B498F13D51B
:1013D00037401189498F13D517402189498F1395BB
:1013E00017004189498F1395370013750502498FFE
:1013F0001395570093D58700137505049E07498FF1
:1014000093F7F70FD98F13D5354013D7554011896E
:10141000098B498F13D57540498F13D51540218904
:10142000498F139515004189498F13953500137520
:101430000502498F13955500137505049E05498FC4
:1014400093F5F50F4D8F2207D98FB387C702130687
:1014500050025285D685B697BD8E93940601C18001
:1014600033F6C402137BF60F978003E0E780A0F801
:1014700005890DED8347541201498149B3849702D0
:10148000130C5002C1804A865285D685978003E0AE
:10149000E78060F60589937BF90F11C563863403F5
:1014A000850993F9F90F0509E31F89FD23076413E3
:1014B000B250225492540259F249624AD24A424BE3
:1014C000B24B224C456182805E8BCDB70111B727AC
:1014D000002022CC03A4875726CA4AC84EC606CE8F
:1014E000AA8413092500854915C083C71400034742
:1014F0003400858B6304F700405CFDB71946930503
:1015000044004A85EFF04F95E31835FF2285F240FD
:101510006244D2444249B249056182804111B727F1
:10152000002022C403A4875726C24AC006C69304DB
:101530002500054901E82285B2402244924402492F
:1015400041018280A6851305A40297B002E0E780DE
:10155000C08EE30225FF405CF1BF4111B727002098
:1015600022C403A4875726C24AC006C69304250096
:10157000054901E82285B2402244924402494101D2
:101580008280A6851305A40197B002E0E780E08A77
:10159000E30225FF405CF1BF0111B727002022CCF8
:1015A00003A4875726CA4AC806CE2AC42EC6B284C8
:1015B000054919E001453DA00347910083473400E8
:1015C0006318F7021946930544001305A100EFF0D4
:1015D000AF88631F2501A6851305A40297B002E01A
:1015E000E780A085F2406244D2444249056182808E
:1015F000405CC1B70111B727002022CC03A4875754
:1016000026CA4AC806CE2AC42EC6B284054919E0A5
:1016100001453DA003479100834734006318F7025A
:101620001946930544001305A100EFF0EF82631FF4
:101630002501A6851305A40197A002E0E780E07FBD
:10164000F2406244D244424905618280405CC1B7A5
:10165000011122CC405D26CA4AC84EC652C406CEED
:10166000AA841D4A1309E5048549BC406364F4005B
:10167000054581A803C7D40083474400631B470581
:1016800003C744026304F7000040C5B70347540092
:1016900083C7D404E31AF7FE1946CA85130564000C
:1016A000EFE09FFBE31235FF0347C40083C75402FA
:1016B000E31CF7FC0357E40083D76402E316F7FC4E
:1016C0000145F2406244D2444249B249224A05618E
:1016D0008280E31BF7FA0347540083C7D404E31561
:1016E000F7FA1946CA8513056400EFE0FFF6E31D1B
:1016F00035F9F9B70111B727002022CC03A4075709
:1017000026CA06CE2AC42EC6854419E40145F240F5
:101710006244D244056182800347140083479100EC
:101720006304F7000044D5B719469305A1001305DB
:101730002400EFE07FF2E31795FE0545C9BF372788
:1017400000208327C75D9306001094C301000100A9
:10175000010001008327C75D9443E59A94C3834643
:10176000150003482500A2064208C296034805005A
:10177000C296034835006208C29694D78346550046
:1017800003486500A2064208C29603484500C29677
:10179000034875006208C296D4D783469500034873
:1017A000A500A2064208C29603488500C2960348D7
:1017B000B5006208C29694DB8346D5000348E50075
:1017C000A2064208C2960348C5000345F500C2962A
:1017D0006205AA96D4DB83C6150003C52500A206C0
:1017E0004205AA9603C50500AA9603C53500620501
:1017F000AA9694CF83C6550003C56500A20642058C
:10180000AA9603C54500AA9603C575006205AA9667
:10181000D4CF83C6950003C5A500A2064205AA96AB
:1018200003C58500AA9603C5B5006205AA9694D3A0
:1018300083C6D50003C5E500A2064205AA9603C5E6
:10184000C50083C5F500AA96E205AE96D4D3D4436D
:10185000F59AD4C3D44393E61600D4C3944393E6D5
:10186000160094C3BA8783A6C75DD842058B59E793
:10187000984E01452300E60003A7C75D184F21835A
:10188000A300E60003A7C75D184F41832301E600CC
:1018900003A7C75D184F6183A301E60083A7C75D57
:1018A000D84F2302E600D84F2183A302E600D84F89
:1018B00041832303E600D84F6183A303E6009853D6
:1018C0002304E60098532183A304E6009853418340
:1018D0002305E60098536183A305E600D853230649
:1018E000E600D8532183A306E600D853418323079B
:1018F000E600DC53E183A307F60082800100A5B770
:101900005D7136D4B72600203AD203A7065E3ED0DA
:1019100026DC1C5F4ACA86C6998396C49AC29EC0BA
:1019200022DE2ADA2ED832D642CE46CC72C876C60D
:101930007AC47EC2858B3689B7240020A5C71C5F78
:101940003724002093F7F7F91CDF8347845E1304E4
:10195000845E93F7070499C7B727002083A7C7368B
:10196000829708C88547A302F4008347440093F791
:10197000070499EBB727002083A747605844F8D3A2
:10198000930700FC2302F400834764001307000858
:10199000631AF70083A7C45D9C439983858BC1E7D5
:1019A000230304008327095E985F1183058B19CBFD
:1019B000985F85463D9B98DF372700201307875E99
:1019C0002302D700985F1D83058B01CF985F1377A3
:1019D000F7F798DFB72700209387875E05472382B4
:1019E000E70083A7C45DD8430583058B19C7D84397
:1019F000759BD8C3D843799BD8C37254B640A642CE
:101A000016438643E2545255C2553256A2561257D7
:101A100082577248E2485249424EB24E224F924F8C
:101A2000616173002030930700FC2303F4009DBF25
:101A3000B72600201387865E83C7865E858B89EB79
:101A400083471700858B89E783474700858BEDD750
:101A50008280372700200328075E83278803958329
:101A6000858BF1E315C6B727002083984750030301
:101A7000060083270803BD836302030893F7F71F5B
:101A8000B38717419A970948B3C707032300F600A5
:101A900085CA8327075E985B46079357670163569D
:101AA000070093E707C0C207C18303970600C20778
:101AB000C18709C7BA970947B3C7E7022390F60061
:101AC000A5C583451500ADC14111B727002006C645
:101AD0009387875E03C767009306000C6383E60263
:101AE00083C56700B727002083A787351305300813
:101AF00082978945B2402E8541018280B387174184
:101B000071B7AA9583C59500854713F7F506630954
:101B1000F700B727002083A787359305D00FF9B7C3
:101B20009D818605C1BF85452E85828041E5B72709
:101B3000002083A64760411122C406C62E873E843A
:101B4000FC52FDFF3A85B28597F002E0E780E08025
:101B5000B727002083A7075EB70680009843558FFC
:101B600098C3D857719BD8D783274460094798C337
:101B7000B7F700E003A707D16D9B23A8E7D003A721
:101B800007D15D9B23A8E7D073005010B727002032
:101B90009387875E03C72700058B09EB03C73700D0
:101BA000058B09E703C74700058B6DD7B240224478
:101BB000410182808D47631FF502B727002083A76C
:101BC000075EB70680009843558F98C3D857719B1E
:101BD000D8D7B72700209387875E03C72700058BD8
:101BE0002DEF03C73700058B2DEB03C74700058B8F
:101BF0006DD782808547E31EF5FC372700208326BA
:101C00004760B567BD07DCC60F100000832747603B
:101C10000967930600F898C7372700201307875EE7
:101C20002302D700372700208326075E0946984203
:101C300031830D8B6319C7001307E043F8D33D6769
:101C40003D07D8C779B7984231830D8B01E7130759
:101C50006019EDB71307E01BD5B782805D714EDECA
:101C6000B729002003A7095E86C6A2C4A6C2CAC0BF
:101C700052DC1C4337290020372A002093F7F7E76E
:101C800093E707081CC3832689643707CEFF7D17B7
:101C90009C46130680022A84F98F9CC683274A60DB
:101CA000130700082800B8CBAE8493051008EFE0B6
:101CB0005F9597F002E0E780408B97F002E0E780C5
:101CC000409783A7095E9376F41FB70EFCFF23A409
:101CD0000700984B130510F8CE851367F70398CBD0
:101CE000F84F4A88B70F0400137707E0558FF8CFF5
:101CF0009843F576FD16758F98C39843B706330061
:101D000091421377F7E798C39843FD1E85431377F5
:101D1000F7E71367071098C303278964130F80023E
:101D20001C47D58F1CC783274A601307900D3400CA
:101D3000B8CB014793583700A69883C7080013769D
:101D40007700B3D7C740858BC5CB83A7055E032E2D
:101D50008864239C0704239007060323CE02137391
:101D6000D3FF23266E0203AE07001373F707137E1B
:101D70000EF833636E0023A0670003A347023363AA
:101D8000F30123A26702014303DE07066307C303CF
:101D900003A30703038E06001353F30062031353D8
:101DA000834163586E0003A307031353F30023809A
:101DB000660003D307061373F30F03DE8705E3F50D
:101DC000C2FD03A347023373D30123A267028387B3
:101DD0000600635CF40003C308003396C300134697
:101DE000F6FF337666002380C8003E8663D3A700E3
:101DF0002A8613158601618505071377F70F850677
:101E0000E31AE7F3B640264496440649F259625A6B
:101E100061618280011136C8B72600203EC483A7C5
:101E200046603AC632CAD8472ACE2ECC42C21316D2
:101E3000170163520602984713161701635D0600E7
:101E40007D57B8D7372700201307072E104F0506F8
:101E500010CF116798C798470D83058B0DC337279F
:101E600000201307875E0346270013661600230130
:101E7000C700130600F82302C700214798C79847F8
:101E8000058B19CF372700201307875E03461700FD
:101E900013661600A300C70023020700054798C772
:101EA00098470983058B09E798470583058B39CF48
:101EB0009847B72500201386855E0983058B372850
:101EC0000020630A07100327085E184331830D8B37
:101ED00063100710A84B184E13750502034717002F
:101EE00071C165E713077006D8CF03C7855E136716
:101EF00017002384E55E114798C70327085E230275
:101F000006005C57F19B93E717005CD703A7466078
:101F10001C479396370163D40602B72700209386A7
:101F2000074C03C606079387074C418A4DCE83C7EB
:101F3000060793E707022388F60685671CC71C4738
:101F40009396270163D10602B72700209387875E07
:101F500083C64700E206E18663D5060085462382F4
:101F6000D70089671CC71C479396070163D20602F6
:101F7000B72700209387074C83C61707858AC1C6F9
:101F800083C6170793E62600A388D706A1671CC758
:101F90007245E2455246C2463247A24712480561A1
:101FA0007300203021D305456315A7001307B00641
:101FB00025BF09456315A7001307F00635B70D4582
:101FC0006315A7001307300705B71307500729BF8C
:101FD0001307600711BF0347360013671700A301FB
:101FE000E600094711BF83C607070946BD8A638813
:101FF000C60083C607070D46BD8AE390C6F4914626
:102000002388D7061DBF83C61707918AC1D283C60E
:10201000170793E686008DBFB726002037270020DC
:1020200093878662130687600346B60183C7D7008D
:102030009386866213078760B29793F7F70F7D4602
:102040006361F604A300F70083471700484B054679
:102050003316F600A386F600698E05EE03C6160158
:1020600013080002814633F6C7028147B355F500D5
:10207000858993F8F70F99C96317D600A300170154
:1020800082808117C1B7850693F6F60F8507E39F17
:1020900007FD8280B727002083A7C736011122CC15
:1020A00026CA52C406CE4AC84EC656C25AC08297E5
:1020B000B7240020938784628047014A6306A40600
:1020C000B727002013878732030767019384846250
:1020D0001389873263550706018D37270020930740
:1020E000876083C7A70113545500137AF50193093C
:1020F00087606368F402B70AC0A8370B4057293FCE
:1021000083C6A9019C44139756003E978307690133
:10211000158C63C50700636357015A9798C4E37031
:10212000D4FE1604336A4401F24062445285D2441C
:102130004249B249224A924A024B05618280E37DBC
:1021400085F8B707C0A833848740229579B7B727A9
:10215000002083A7C736411122C44AC006C626C242
:102160008297372900209307896280476308A40675
:10217000B72700208387E7331309896263D80704F0
:10218000018DB72400209387846083C7A70113546F
:102190005500938484606363F404BD3D83C7A40148
:1021A000032789009396570036971D8C2324E90056
:1021B000E375F4FE224403C51400B2409244024980
:1021C00081454101171303E06700A306E37A85FA0E
:1021D000B707C0A833848740229565B7B240224430
:1021E0009244024941018280B727002003A78764F7
:1021F000B75702009387079F832607091396560057
:102200006358060083260709139666006344060098
:06221000FD17FDF38280C2
:102218003D432A876373C3029377F700BDEFADE5AB
:10222800937606FF3D8ABA960CC34CC30CC74CC7BD
:102238004107E36BD7FE11E28280B306C3408A06EA
:102248009702000096966780A6002307B700A306AA
:10225800B7002306B700A305B7002305B700A304FA
:10226800B7002304B700A303B7002303B700A302F2
:10227800B7002302B700A301B7002301B700A300EA
:10228800B7002300B700828093F5F50F9396850079
:10229800D58D93960501D58D61B793962700970242
:1022A800000096968682E78086FA9680C1171D8F71
:1022B8003E96E374C3F8A5B7B72700203727002058
:1022C80083A7872D0327072D01456313F700828015
:1022D80083D6670081E683D6470036959C43F5B7D9
:1022E800B727002083A587323727002093878732B6
:1022F80013860522232CC72C03D74700938785FF15
:10230800B72600204111BA97056523A8F62C06C602
:102318001D05935637006374E500930600203307C4
:10232800D60037250020232AE52C23A0E522E11634
:102338002312D600231306001CC3998FE11723121A
:10234800F700231307008D3FB240B72700202392E0
:10235800A72E41018280B72700203727002083A7B6
:10236800872D8326072D01456393F600828003D7C6
:10237800670011E703D747006373E5003A859C437C
:10238800E5B7B7270020B726002083A7872D03A627
:10239800062D2A87B305B5406314F6003A8529A8A7
:1023A800938687009C43E369D7FEE377F7FE2E8583
:1023B800E3E4D5FEE3F2F5FE828023AC05FE1C4182
:1023C80091E7010001000CC18280BA8703A787FF4B
:1023D8006DFF23ACB7FE82801DC18346E5FF13075E
:1023E800F00F9147639EE600411106C697E0FE1F75
:1023F800E780C0D0B24081473E8541018280954741
:102408003E85828001E9014582800145B24022442F
:102418004101828095654111938505D022C4C98DFB
:102428002A842105C2054205C181418106C697E07B
:10243800FE1FE780A0BC71D9FD5723200500231299
:1024480085002303F5002105D1B7411126C2B72421
:10245800002083A7C42D22C44AC006C601440149EE
:1024680089E7A165652515C401A803C7E7FF6319B6
:10247800A70205CCA165A12E03A7C42D832784FF3D
:102488006317E40223AEF42CFD57232C04FE230F1C
:10249800F4FE2285B24022449244024941018280DE
:1024A80011E03E8983A787FF65BF3E84E5BF232CE3
:1024B800F9FED9BFB1CDB727002083C7172E411128
:1024C80022C406C62A842E856375F400894763E80A
:1024D800870019370D45B24022444101828083A705
:1024E80085FF99E703C7E5FF9307F00F6305F7003A
:1024F800E5351545CDB737250020238F85FE130513
:10250800C52D653D22852244B240A1654101C1A483
:1025180015458280B727002023AE072C8280B72775
:10252800002083A7473299E33E85828003D727009E
:102538006316B70003C70700E308A7FEDC47E5B743
:10254800BDCD797122D406D626D24AD04ECE0144CA
:102558004147B3D78540858BB1CF120531472295C6
:102568003305E502B727002003A947368544B3940D
:102578008400C204C180BE892A990327090011C7B3
:10258800032549002EC60297B24531473304E402B9
:1025980083A749363E941C4489E723200900232257
:1025A8000900B2502254A58D02599254F2492E8541
:1025B800456182800504E31EE4F88144DDB72E8579
:1025C800828041111397050122C406C626C24AC05B
:1025D80041872E84635E07008D3D11C1F53BA167DD
:1025E8003D8C2285B24022449244024941018280B6
:1025F800EDD9AA8701474146B356E440858A9DCA6A
:102608009207BA97B146B387D702B726002003A925
:1026180046368544B394E400C204C1803E998327BA
:102628000900032549008297232009002322090075
:10263800258C45BF0507E311C7FC8144D5BFB727E3
:10264800002083A78734411122C406C637240020FE
:102658001304840F85C7829708C00840B747030052
:102668009387D73F3305F502B7A72600938737EC42
:10267800B2403E9508C0224441018280B72700201D
:1026880083A7C736F9DB82971C403E95F1B76309EB
:102698000510B727002083A7C736797122D44AD0FE
:1026A8004ECE52CC56CA5AC806D626D25EC662C488
:1026B80066C23A8AB6893284AE8A2A898297B7274F
:1026C80000201387873203076701138B8732635013
:1026D80007063305A4406343050CB727002003A76A
:1026E8004736BE8B8144B146C147338CD40293FC34
:1026F800F40F33068701104249EEC165938505F052
:10270800414597E0FE1FE780608F15ED83270B0397
:102718009DE70145B250225492540259F249624A47
:10272800D24A424BB24B224C924C45618280E372B2
:10273800A4FAB707C0A8A2973385A74069BF814507
:1027480011458297F9B7B727002003A7473215EF3D
:1027580023A2A7322300050083A74B360547B314ED
:1027680097002326050000C5231195002322450163
:10277800E29723A0270123A2570123A44701E38A54
:1027880009F82380990171B73E875C47F5FF48C770
:10279800D1B78504E39BF4F42145ADBF09459DBF3E
:1027A80009458280B727002083A78736411122C4B4
:1027B80006C6372400201304042E89C782971C48B4
:1027C8003E9508C80848B240224441018280B72794
:1027D800002083C7172E6370F50237270020931750
:1027E8001500032507323E9583570500DD8D23101C
:1027F800B500014582800D458280B727002083C738
:10280800172E6372F502372700209317150003254A
:10281800073293C5F5FF3E9583570500FD8D2310BC
:10282800B500014582800D4582809307F00263E37D
:10283800A70C31473307E502B727002083A747369F
:10284800BA979843894745CB011126CA4EC6854495
:10285800935945003D893395A40093140501C1801F
:1028680022CC4E852E84A6854AC806CE4D392A89A3
:10287800814731C9A6854E854937B727002083A7E8
:10288800C7368297B727002083C7E733AA8493996E
:10289800870193D9894163D009049305102733052B
:1028A800B4023334B40215816E04418D269563C990
:1028B8000900B707C0A86365F500B70740573E95FC
:1028C8002324A9008147F2406244D2444249B249D4
:1028D8003E8505618280858B89C751453305A402F1
:1028E800F1B7654681461315940093557401EF605E
:1028F800520D6DBF89473E858280B727002083C768
:10290800172E6364F50001458280B727002083A74E
:10291800C736F5DB011122CC26CA4AC84EC652C4B6
:1029280056C206CE372A00203284AE89AA848297FE
:1029380093078A3283C767012A89130A8A32939ACE
:10294800870193DA8A4163DD0A029305102733056C
:10295800B4023334B40215816E04418D2A9963C9D7
:102968000A00B707C0A86365F900B70740573E9942
:10297800CE8526856D3605C523242501054589A004
:10298800858B89C751453305A402C9BF6546814671
:102998001315940093557401EF60B202C1B793E523
:1029A80004F0C205C181414597D0FE1FE78000654C
:1029B8000DE183270A0381C7A68511458297014542
:1029C800F2406244D2444249B249224A924A0561DD
:1029D8008280372700208327473295E32322A732B6
:1029E80085472326050023242501231135012300CB
:1029F8009500A300F5002322050049B7BA87D847F8
:102A080075FFC8C7F1BF41C9797122D426D24AD00F
:102A18004ECE52CC56CA5AC85EC662C406D6B689CD
:102A2800B28A2E8A2A899304000C4144372B00204D
:102A3800054C930B000383274B36A6979C43A1E7CD
:102A48009375F400B315BC00C2055686C1811355B1
:102A5800440065350DC983274B360145BE9423A034
:102A6800240123A244016384090023808900B25011
:102A7800225492540259F249624AD24A424BB24B0A
:102A8800224C4561828005041374F40FB104E314E9
:102A980074FB2145E9BF09458280411122C426C241
:102AA8004AC006C6AA842E893284813DCA852685F5
:102AB800BD3439C9B727002083C7E733AA841397E1
:102AC8008701618763530702930710273305F402D0
:102AD8003334F40215816E04418DC8C00145B240FB
:102AE80022449244024941018280858B89C751451D
:102AF8003305A402DDB76546814613159400935546
:102B08007401EF60026CD1BF2145D1BF411122C4CD
:102B180026C24AC006C6AA842E8911342A8419C13D
:102B280023110500CA852685C939014511E01945D3
:102B3800B240224492440249410182809307F00244
:102B480063E8A7044111B14722C43304F50226C241
:102B5800B724002083A7443606C6A297984389471E
:102B680015C39377F5008545B395F500C205C18176
:102B78001181693F83A74436A29723A0070023A2A7
:102B880007008147B240224492443E854101828039
:102B980089473E858280411106C622C4493211E523
:102BA8000145B240224441018280B727002083A713
:102BB800C73600458297B727002083C7E7331397A6
:102BC80087016187635307023305A440E34A05FC84
:102BD80063530702F947B335F502130610278146F8
:102BE8003305F502EF60E25D6DBFE37FA4FCB70635
:102BF800C0A83694D1BF858B89C7D1473355F50214
:102C08004DB76547B307E5023335E502A5835E0591
:102C18005D8D41BF82804111B727002006C623A4DD
:102C2800A7360295B240B727002023AAA72E014550
:102C380041018280994763E9B700B72700208A05D8
:102C480093874730BE9588C18280411106C622C449
:102C580026C2EFF0EFE837250020714681451305BD
:102C6800453097D0FE1FE780807137240020130677
:102C780000021305042E814597D0FE1FE7802070BF
:102C8800B727002023A20732B727002023A407363E
:102C9800B727002083C7F7331304042E93051010B9
:102CA80013D527008D8B3E958D473305F50299473F
:102CB800B724002039051375F50F2301A400330547
:102CC800F5021305052497D0FE1FE7802033B727A8
:102CD800002023A2A736834724001305052423A038
:102CE800A4308A073E95B727002023A0A732EFF02B
:102CF8007F828347140083A6043037260100139788
:102D0800270036971306865410C3138717001377C6
:102D1800F70F0A073726010036971306A65C10C37B
:102D280013873700890793F7F70FA300E400B24031
:102D380022448A07B69790C392444101828037277C
:102D480000201307072E834717008346270063F0E8
:102D5800D702B726002083A6063013861700A300E3
:102D6800C70013972700369708C33E8582809307CC
:102D7800F00FE5BF1C416382071041777D8FB706CE
:102D880000208947631CD70E0357450065CB4111C6
:102D980026C21946AA849305F00F690506C622C4FF
:102DA80097D0FE1FE780A06705478D476301E50CB4
:102DB800372400201306C00381451305843297D0B9
:102DC800FE1FE780C05B1306C003A6851305843287
:102DD80097D0FE1FE78020579307843203D7C70098
:102DE80009E7130700202396E70003C7E70001E778
:102DF80005472387E70003D7070101E76D472398B5
:102E0800E70003C7F70001E71547A387E70003C7F3
:102E1800270101E705472389E70003C7370109E7C9
:102E280003C7F700A389E70003C7470101E7354750
:102E3800238AE70003C7970109E713078002A38CD9
:102E4800E70003C7570109E71307D002A38AE70081
:102E580003C7840101E70947238CE7009C5791C702
:102E68008297B72700202393A72EC5338147B24006
:102E7800224492443E854101828089473E85828072
:102E8800B727002083A7C736411106C68297B72700
:102E9800002003C6E733058A29C693073033330772
:102EA800F502B337F5023983CA07B7260020D98F50
:102EB8001387062E584B9386062E01456300F702AA
:102EC8003385E740636BF70037653D0809C63785EA
:102ED8006F0813050590198D3E95DCCAB240410173
:102EE8008280E5473307F502B337F5022583DE070D
:102EF8006DBF011122CC06CE2A842EC6EFF02FF426
:102F0800B245F240818D33A5A5022295624413751E
:102F1800F50F05618280011122CC06CE2A842EC6C7
:102F2800EFF0EFF1B245F240818D33A5A50222956D
:102F380062444205418105618280011122CC06CE9E
:102F48002A842EC6EFF0AFEFB245F240818D33B53B
:102F5800A5022295624405618280B7270020138765
:102F6800873218572DC3411122C426C24AC006C64B
:102F7800138987320297B72700201387072E035734
:102F880067002A849384072E0DCBBA876373A70042
:102F9800AA87C207C183BA866373E400A286C20601
:102FA800C182958F5147635AF7008327C90291C39D
:102FB8008297EFD0C17523938400B2402244924493
:102FC8000249410182808280B72700201387873217
:102FD8005857011122CC06CE1384873201C72AC65E
:102FE80002973245B727002009CD23A6A7363735E3
:102FF8000100130585E80531F24062440145056189
:1030080082800307640163540702372700201307EF
:10301800072E232C0700FD5637C700402324D72648
:10302800370700201307276E23A6E736C9B73707E7
:10303800002013074771CDBF411122C43724002057
:10304800930784329C4726C206C6B724002093847F
:10305800042EA5C3130484321C5CA1CFDC4C85E389
:103068000345E4008357C4009305E0043305F502E3
:103078004205418197D0FE1FE78040F8C8CCC84C74
:103088000DC98357C4000346E4009305F00F3306C7
:10309800F60297D0FE1FE780802ED04C0844835755
:1030A800C40008C28345E400B385F5021C5C89812D
:1030B8008297C84C19C597D0FE1FE780200423AE1D
:1030C8000400B2402244924401454101828001112A
:1030D8004AC8372900209307092E22CCC04F4EC674
:1030E80052C456C206CE26CAAA8AAE89328A1309A3
:1030F800092E29E4B7240020938484329C4499E360
:10310800A944BDA803C5E40083D7C4009305E0041F
:103118003305F5024205418197D0FE1FE78000EE96
:103128002A8441C1DC58B5CF83C5E40003D7C40065
:103138002A868844B385E5028981829791451307D9
:10314800A005898193972500A29783C607006396F7
:10315800E60483C61700639F560385058A054E86D5
:10316800A295528597D0FE1FE780E01D8327C901ED
:10317800814463878700228597D0FE1FE78000F887
:10318800F240624426854249D244B249224A924AD0
:103198000561828083D527006DB78327C901E38144
:1031A80087F6228597D0FE1FE78040F591BFB727A5
:1031B8000020938787329447B9C2985F29C3054690
:1031C800631FC502411122C4372400201304042EB2
:1031D800504C06C60DC283C5E70083D7C7003685A5
:1031E800B385F50289810297484C97D0FE1FE78086
:1031F800E0F0232E0400B240224441018280828004
:1032080001114EC6B72900209387092EDC4F22CC26
:103218004AC852C406CE26CA2A8A2E89328493897D
:10322800092EA1EFB72400209384843203C5E4005B
:1032380083D7C4009305E0043305F50242054181B4
:1032480097D0FE1FE78080DB23AEA9002A8611E90C
:103258002945F2406244D2444249B249224A0561B2
:103268008280884419C9DC5889CB83C5E40003D718
:10327800C400B385E5028981829703A5C9019146F7
:103288001308A005FD5593D72600C207C1831397DD
:1032980027002A9703460700631B06038348170085
:1032A8000356270063934803B306D64063CD26012F
:1032B80085078A073E954A86A28597D0FE1FE78034
:1032C8008008014579B7A300B700B2866DBF3726DD
:1032D8000020130686328345E6000356C600B385F0
:1032E800C502338626011106E3E4C5F61306390044
:1032F8001376C60F1106B29623000701A3004701F3
:103308002311D70075B7B727002083A6C72F8DCE06
:1033180091471306A0059305F00F89838A07B6978E
:1033280003D7270003C5070009830A073697631DDB
:10333800C500034517006316B500035727002391FE
:10334800E70083D72700D1BF0145828083C70500E6
:103358002300F50083D72500A300F50083D72500B7
:10336800A1832301F50083C74500A301F50011459A
:103378008280B727002023AE0712B727002023AC8E
:103388000712828029C1411126C206C622C4AA8416
:1033980001458DC52E84B7B5030022854146938526
:1033A800C58297D0FE1FE78000FA83C70400054551
:1033B8002306F40083C71400A306F400B240224495
:1033C80092444101828001458280011122CC26CAA3
:1033D80006CE0947AA8432846381E50441468147C1
:1033E800639BC500638FE6006397B6000DA841474D
:1033F8008147638EE600F2406244D2443E8505610F
:1034080082808A852285BD3F41468A8519A88A859A
:10341800953F41468A85228531A0E39AB6FC2E86DF
:10342800A285268597D0FE1FE780C0FAAA87E1B754
:10343800B727002023ACA7128280B727002023AE2D
:10344800A7128280011122CC0354650006CE26CA39
:103458004AC84EC641C083298500AE842A8803C95C
:103468000900814713178901618763550702B1472E
:10347800054563FA87045114420403552800418026
:1034880033878900A2864E868545EFD0A00CB337D6
:10349800A00085077D141355690042040589137936
:1034A800F90341802380F400A380A4002381240130
:1034B80023928400014719C01387190098C409474B
:1034C8006383E7000145F2406244D2444249B2496D
:1034D800056182800545C5BFC167F917630AF50212
:1034E800D94763F7B702011122CC2EC606CE2A842B
:1034F800EF80B05EB2456368B50022856244F24051
:1035080005616FA0C075F24062440545056182807F
:1035180005458280C167F9176314F5006F80F05B79
:10352800411106C6EFA0606211E15D45B24041015C
:10353800828091476394F502834705002300F600D3
:103548008347250003471500A207D98F2311F600EA
:103558008347350001452302F600828011458280A9
:103568004111814522C426C206C6AA8405252A849B
:1035780009E9B727002083A7871381C7F94526855E
:1035880082972285B2402244924441018280397157
:103598004ED656D25AD006DE22DC26DA4AD852D483
:1035A800AA8A2E8BB28941EF36C6AD379145EF8096
:1035B8009064AA844D492DC9B246054A2380340136
:1035C8000544630A0B00B68513851400029B0505A4
:1035D800131405014180E20993D9894163D3090293
:1035E800C1455685EFA0A064654905E93386840086
:1035F800A2852685EFC050372A8905E131044204A7
:10360800418091472C085685231CF10026CE231DA6
:103618008100EF9050752A8901C963070A00268541
:1036280097D0FE1FE78080ADF25062544A85D2548D
:103638004259B259225A925A025B21618280BA8455
:10364800014AADBF011122CC26CA4AC84EC606CED1
:103658002A893284B689253FAA840DE1B72700203C
:1036680083A7C71381CF05476317E40003C4090084
:1036780005041374F40FA2854A858297F2406244C8
:1036880026854249D244B24905618280AE86B73563
:10369800010001470546938545356DB783D7050079
:1036A8002300F50083D70500A183A300F500094591
:1036B800828083D705002300F50083D70500A18306
:1036C800A300F50083D725002301F50083D7250043
:1036D800A183A301F5001145828083D7050023004B
:1036E800F50083D70500A183A300F50083D7250043
:1036F8002301F50083D72500A183A301F50083C723
:1037080055002302F50083C76500A302F50003D521
:103718008500190542054181828083D70500230071
:10372800F50083D70500A183A300F5000945828031
:1037380083D705002300F50083D70500A183A300E4
:10374800F50083D725002301F50083D72500A18341
:10375800A301F5001145828003D545000605420501
:103768004181828083D705002300F50083D70500B7
:10377800A183A300F50003D5250009054205418171
:10378800828083D705002300F50083D70500A18335
:10379800A300F50083D725002301F50083D7250072
:1037A800A183A301F50003D5450011054205418118
:1037B800828083C705002300F5000545828083D7F2
:1037C8000500411122C406C62300F50083D7050071
:1037D8002E841105A183A30EF5FE83D72500950538
:1037E800230FF5FE83D7D5FFA183A30FF5FE03C6EC
:1037F800F5FF97D0FE1FE78000B503454400B240AF
:1038080022441105410182808947639CF500834762
:103818001500034705000145A207D98F2310F600BC
:1038280082801145828003D70500D94763FEE702ED
:10383800011122CC06CE2EC62A84EF80102AB24669
:1038480083D70600636DF50022856244F240B735E0
:103858000100014709469385456A05610DBBF240A1
:1038680062440945056182800945828091479DC56A
:1038780083460500FD15C2058547C1816392F6029E
:1038880013D725008D89914791E9914701CB05050B
:103898002301D6002310E60048C281473E85828076
:1038A80009479147E39CE6FEC94733D7F502B3F5CC
:1038B800F502D1BFAE86B7350100014711469385A1
:1038C800A56BF1B193F7350091EB8981914789C5D3
:1038D8002310B60048C281473E8582809147EDBFDC
:1038E80003C745008947631AF702011122CC2A84CD
:1038F800C84506CEAE86014719C52EC69D45EFE0E0
:103908005FA8B2462A8722856244F240B735010093
:1039180019469385256E05619DB90945828099E10F
:10392800114582808347050005472311F600E37996
:10393800F7FEFD1593F5F50F33D7F502B387E702C8
:10394800E390F5FE050548C22310E6000145828094
:1039580083C745000947AE866385E70041476399F9
:10396800E700B7350100014721469385657C05B11D
:10397800094582802310B60091E1014548C20145FE
:103988008280AE86B73501000147294693852572A6
:10399800FDBE2310B60091E1014548C20145828071
:1039A800AE86B73501000147314693858573C5B6A4
:1039B8002310B60091E1014548C20145828003D732
:1039C8004500854763FDE702011122CC2A8488411E
:1039D80006CE0DC12EC68545EFE0BF9A2A872285FF
:1039E8006244B246F240B735010039469385057600
:1039F800056171BEF240624409450561828009454E
:103A0800828091479DC5034705008D46914763F223
:103A1800E602FD15C205C181B3C6E5023308D70227
:103A28006399050105052310D6002311E60048C255
:103A380081473E85828083C745000947AE866385F6
:103A4800E70041476399E700B73501000147414660
:103A58009385657C2DBE09458280B335B0001395EA
:103A680025008280011122CC26CA06CE03C7850014
:103A78008547AA842E8449466310F702613C835720
:103A8800240049151306200963C8A700F2406244C0
:103A9800D244094505618280034794008547631431
:103AA800F70013660604484011C58D4532C6EFE09D
:103AB8005F8D3246A2866244F2402A872685D24428
:103AC800B73501009385C5760561D1B48D4763FF8D
:103AD800B7028347150003470500F115A207D98FE0
:103AE8002310F6008347350003472500C205A207C7
:103AF800C181D98F2311F6002312B60089C511059B
:103B080008C60145828023240600E5BF114582804E
:103B1800011122CC2A84884506CEAE8611C52EC650
:103B28009545EFE01F86B2462A8722856244F24017
:103B3800B735010059469385A578056189BCB33529
:103B4800B000139525008280AE86B7350100014785
:103B580061469385A57B25BC8547114563F4D7024B
:103B68008347160083450600A207CD8F2310F70070
:103B78009387E6FF2311F70089476386F600090655
:103B880050C30145828023220700E5BF01478146D3
:103B980079468145EDBA83D705002300F50083D720
:103BA8000500A183A300F5000945828083C725008D
:103BB80005472300F50003D505006397E7000A05CC
:103BC8000505420541818280C9473305F502CDBF0D
:103BD80003D505000A0542054181828083D7250067
:103BE8002300F50003D5050083D725003305F5022A
:103BF800050542054181828003D50500828003D5F1
:103C08000500828003D50500828083D72500230024
:103C1800F50003D5050083D725003305F502050512
:103C280042054181828083D705002300F50083D7B0
:103C38000500A183A300F50083D725002301F50023
:103C480083D72500A183A301F50003D545001105FD
:103C580042054181828083D705002300F50083D780
:103C68000500A183A300F50003D525000905420539
:103C78004181828089471145639BF600834716007E
:103C8800834606000145A207D58F2310F7008280DE
:103C980003D70500D947AE8663F9E700B7450100A9
:103CA80001470D469385E5B971BA094582801145EA
:103CB8006393A60283471600834606000145A207C0
:103CC800D58F2310F7008347360083462600A207C6
:103CD800D58F2311F700828083C725000547FD177C
:103CE80093F7F70F6361F70483D705008DCF0111B0
:103CF80022CC2A84C84106CE15C12EC68945EFE0DC
:103D08004FE82A8722856244B246F240B74501004F
:103D18001546938545BB05616FF0DF92F24062441A
:103D2800094505618280094582809547114563F9F7
:103D3800D706411122C426C24AC006C683471600C8
:103D4800BA8403470600A2073284D98F2390F4006F
:103D5800834736000347260093054400A207D98FFE
:103D68002391F40089472382F400094613855400FF
:103D7800368997C0FE1FE780005D9307A9FF23944B
:103D8800F4009947631BF90023A60400B2402244BB
:103D9800924402490145410182801904C0C4FDB71B
:103DA800828083D705008DCF011122CC2A84C84197
:103DB80006CE15C12EC68545EFE0AFDC2A872285E1
:103DC8006244B246F240B74501001D46938585BD61
:103DD80005616FF03F87F2406244094505618280C2
:103DE8000945828099476395F6048947411106C6BB
:103DF8002302F7008347160083460600B285A20710
:103E0800D58F2310F70083473600834626000346E4
:103E18004700A207D58F130557002311F700910516
:103E280097C0FE1FE7802052B240014541018280C1
:103E3800D14711456394F600C1474DBF828083D7AF
:103E480005008DCF011122CC2A84C84106CE15C1A8
:103E58002EC68945EFE0EFD22A8722856244B24612
:103E6800F240B74501002546938545BE05616FF0D0
:103E78006FFDF240624409450561828009458280F0
:103E880089471145639BF600834716008346060061
:103E98000145A207D58F2310F7008280011122CC9B
:103EA8002A84C84106CEAE86014719C52EC6854567
:103EB800EFE02FCDB2462A8722856244F240B7450B
:103EC80001002D46938505C005616FF0AFF71145D8
:103ED8006393A60283471600834606000145A2079E
:103EE800D58F2310F7008347360083462600A207A4
:103EF800D58F2311F7008280011122CC2A84C84172
:103F080006CEAE8611C52EC68545EFE08FC7B246F0
:103F18002A8722856244F240B745010035469385D9
:103F280065C005616FF00FF293F71600114589EB34
:103F380089476387F60085822312D70010C301459D
:103F48008280011122CC2A84C84106CE15C12EC612
:103F58008545EFE00FC32A8722856244B246F240C6
:103F6800B74501003D469385C5C005616FF08FEDEB
:103F7800F240624409450561828083D705008DCFF0
:103F8800011122CC2A84C84106CE15C12EC6894506
:103F9800EFE02FBF2A8722856244B246F240B74538
:103FA80001004546938525C105616FF0AFE9F240F0
:103FB800624409450561828009458280854763FC22
:103FC800D7022304A700A304B7008347160083453C
:103FD8000600A207CD8F2310F7009387E6FF231171
:103FE800F70089476386F600090650C301458280B9
:103FF80023220700E5BF11458280014781464D46CF
:1040080081456FF02FE48D47114563FBD702834745
:10401800160083450600A207CD8F2310F7008347BB
:10402800360083452600A207CD8F2311F70093871A
:10403800C6FF2312F7006386A600110610C70145C4
:10404800828023240700E5BF011122CC2A848845F9
:1040580006CEAE8611C52EC69545EFE08FB2B246A4
:104068002A8722856244F240B74501005D46938560
:10407800E5C205616FF00FDD854711456397F600CE
:104088008347060001452300F700828001478146E7
:10409800654681456FF00FDB011122CC2A84C841A7
:1040A80006CEAE86014719C52EC68D45EFE06FAD29
:1040B800B2462A8722856244F240B74501006D4620
:1040C8009385E5C505616FF08FCC011122CC2A8458
:1040D800C84106CEAE86014719C52EC68D45EFE00C
:1040E8004FAAB2462A8722856244F240B7450100AA
:1040F80075469385E5C505616FF06FC9011106CE58
:104108002EC6EF90B02001C9B245F24003552500F4
:1041180005616FD0A032F240494505618280B7271A
:104128000020A3840716B727002023840716B72783
:10413800002023A80714B727002023AA0714B727AD
:10414800002023AC0714B727002023AE0714B72795
:10415800002023A60714B727002023A40714B72795
:104168000020239807383D46938707392391C702D3
:1041780071761307400B130606B82391E7002392C4
:10418800C70211671D46930600059305000A13052B
:10419800007D2392E7002393C70241470546130891
:1041A80010F82395E7002396E7002399E700239A60
:1041B800E700239BE700239CE7002394E70223966C
:1041C80007032393B7002394B7002397D7002398B6
:1041D800D700239DA700239E0700239F0700239055
:1041E80007022395C702239707021308F0072398AD
:1041F80007022392E7042393E704239FE70423900D
:10420800E7062391E7062392E70623990703239AF3
:10421800C702239BC702239C0702239D0702239EF4
:104228000702239F0702239007042391C7042394BE
:104238000704239507042396C7042397D7042398D4
:10424800D7042399A704239A0704239B0704239CD4
:104258000704239DD704239ED7042393A7062394FA
:10426800070623950706239607062397B70623987C
:10427800B7067D5723990706239AE706828001111E
:1042880026CAAA84214522CC06CE2E8432C636C43C
:104298003AC2EFE02F971DC9A2461247324693074C
:1042A80000FD2300F5009947A30095002301F500C0
:1042B8002303D500A303E5002312C500AA852285A0
:1042C8006244F240D24405616FE0CF9EF2406244FE
:1042D800D24405618280B727002023A8A7148280D2
:1042E800B727002023AAA7148280B727002023AC71
:1042F800A7148280B727002023AEA714828001115B
:1043080022CC4AC806CE26CA2A890144B3048900A9
:104318006368B400F2406244D24442490561828035
:104328002EC6EFE0CFB193170501C183A183B24533
:104338002380F4009307140093F7F70F850463F9BB
:10434800B700CA9709042380A7001374F40F7DBF30
:104358003E847DBF411122C4372400201304043752
:1043680003556400C16706C6FD17630FF500B7273C
:10437800002003C6474AB725002093850516EF900D
:10438800E061FD572313F400B240224441018280CA
:1043980009C925151375F50F1335850E1345150035
:1043A800828001458280797122D452CC06D626D2E9
:1043B8004AD04ECE2A8A2390050001442EC6637443
:1043C800C406B387860083C7070093041400C20499
:1043D8001399070113590901C18063060904A697B7
:1043E80032C46342F604B387960083C9070036C215
:1043F8004E85793F0DC9B2459307F9FF9246239040
:10440800F5002246639D4901138514003695B25084
:10441800225492540259F249624A456182804A9470
:104428004204418061BF0145DDB7011122CC372428
:10443800002026CA4AC84EC69307043706CE2E89DE
:10444800D0CB8CCBC8C7AA8441469305F00F4A85C8
:1044580097C0FE1FE780A0FC854913040437631941
:1044680035030848C145613D41469305F00F26854F
:1044780097C0FE1FE780A0FA054963152503484445
:104488006244F240D2444249B249C145056185BD02
:10449800414681454A8597C0FE1FE78040F8E315ED
:1044A80035FDC1B741468145268597C0FE1FE78087
:1044B80000F7E30625FDF2406244D2444249B2497E
:1044C80005618280411122C43724002026C24AC0D7
:1044D800AE842A891306000281451305043706C6EF
:1044E80097C0FE1FE780A0E993070437A38127013F
:1044F800B72700202384974AEFC0D075854719C194
:10450800814749452308F436B2402244924402497F
:1045180041018280814781CD19C98547631BF50018
:1045280083C7550093E707FCA382F50085473E85BE
:10453800828089476317F50083C7550093F7F7030F
:10454800E5B70D478547E314E5FE03C75500137724
:10455800F70313670704A382E500D1BF81478DC124
:1045680005C103C755009306000C85471377070C50
:104578006308D700930600048D476303D700894773
:104588003E858280411122C4005D06C626C21DC830
:10459800AA84085009C597C0FE1FE78020B6485076
:1045A80009C597C0FE1FE78060B5085409C597C0C4
:1045B800FE1FE780A0B4228597C0FE1FE78000B4E5
:1045C80023AC0402B240224492444101828019E99A
:1045D800B727002083C7273791C737250020130541
:1045E8000514828037250020130585388280B72777
:1045F800002003C527378280B727002003A5C737C7
:104608008280B727002003A507388280B7270020BB
:1046180083A7473888438280B727002093870737C6
:10462800D44B9842050798C203C537009307F00F8B
:104638006305F50091656FE08F998280011122CCA6
:1046480006CE2E8432C6EF90005D9147B2456310C6
:10465800F502B727002083A7C71595C303A3070052
:10466800630F030022856244F24005610283B72785
:10467800002083A7471581C703A34700D5B7F24099
:104688006244054505618280011122CC2A840355C4
:10469800450006CE26CA4AC84EC6EF90403E3DC9E0
:1046A8002A89834405008349C500E93D4A85EFA06E
:1046B800003703554400EF90405137290020130973
:1046C800891683470900B9CB639A9704B727002056
:1046D80083C5971626851D3419E123000900035563
:1046E8004400EF9040539147631FF500B72700201F
:1046F800938707378356440003D767006395E6001E
:104708007D572393E700F2406244D2444249B249BC
:104718000561828081499304F00F45B79307F00F34
:10472800E38FF4FA834664000356440003452400EB
:104738004E87A685A93665B779715EC6AA8B2E8580
:1047480052CC56CA5AC806D622D426D24AD04ECE01
:10475800AE8A328B368AEF9080327DC1045D2A8919
:10476800E5C09C50614599C3130540039C5481C71B
:1047780051054205418163050A00710542054181E1
:10478800DC5081C7590542054181EFD0BFC72A8453
:1047980045C96146814597C0FE1FE78040BEB727DF
:1047A800002083C9073C63940900834909009307E3
:1047B80000FD2300F400A947A30074012301F400BD
:1047C800230364018C50231254011305840191C9F9
:1047D80008C47146930A440397C0FE1FE780A0B639
:1047E80056858C5491C948C45146930A450197C0CF
:1047F800FE1FE78040B55685630C0A0008C871465D
:10480800D285930AC50197C0FE1FE780C0B35685BD
:10481800CC5099C548C8594697C0FE1FE780A0B23A
:10482800A2854E85EFD01FC92254B2509254F24946
:10483800624AD24A424BB24B4A850259456199B302
:10484800B250225492540259F249624AD24A424B17
:10485800B24B4561828001114EC6AA892E854AC88D
:1048680006CE22CC26CA2E89EF90602121C9B7270F
:10487800002083C4073C99E0834405001945EFD024
:104888007FB82A8405CD8145194697C0FE1FE78069
:1048980000AF930700FD2300F400B947A3003401DB
:1048A8002301F40023122401A2856244F240424904
:1048B800B2492685D24405616FD0DFBFF240624419
:1048C800D2444249B2490561828039715ECEAA8BD1
:1048D8002E8526DA4ED652D456D25AD006DE22DC9F
:1048E8004AD8AE84328BB68A3A8ABE8942C6EF90DD
:1048F800001921CD2A894145EFD0DFB02A8431C57E
:104908004146814597C0FE1FE78060A7B727002072
:1049180003C5073C19E103450900930700FD23007F
:10492800F400BD472301F400B247A3007401231229
:10493800940023046401A304540123054401A3053E
:1049480034015CC4A285EFD0FFB6F2506254D25451
:104958004259B259225A925A025BF24B2161828023
:10496800797126D2AA8439454AD04ECE06D622D4A9
:104978002EC6B2893689EFD0FFA821C1B245930768
:10498800000D2310F500B1472A842312B500230136
:10499800F500CE851905194697C0FE1FE780A09A35
:1049A80023062401A2852254B2500259F24913F574
:1049B800F40F925445616FD0FFAFB2502254925415
:1049C8000259F24945618280411126C2B72400206C
:1049D8009384043703C7340006C622C44AC0930729
:1049E800F00F630CF7042A893945EFD0BFA12A8458
:1049F80029C5930700FDB72500202300F500A30073
:104A0800250123010500938585380D05194697C0B2
:104A1800FE1FE780409383D78400A28503C5340036
:104A28002315F40083C714002306F4002244B2407F
:104A38009244024941016FD0FFA7B24022449244F8
:104A480002494101828001115AC02A8B31454AC866
:104A58004EC652C456C206CE22CC26CA2E89B28A67
:104A6800368ABA89EFD01F9A41C52A844A85EF90C1
:104A7800000135C98346C500B72700202147938721
:104A8800474A6392E60483C46700930700FD230046
:104A9800F4009D47A30064012301F40023122401BC
:104AA800231354012314440123153401A2856244BD
:104AB800F2404249B249224A924A024B2685D244E0
:104AC80005616FD03F9F83C45700E3100BFCB727E5
:104AD800002083A707229C47CDDBCE865286D68549
:104AE8004A8582975DB7B727002083C4373771BFDF
:104AF800F2406244D2444249B249224A924A024BA5
:104B080005618280011122CC2A84214506CE2EC659
:104B1800EFD05F8F21C1B245930700FD2300F50058
:104B2800C5472301F50083C73500A301F50083D7E6
:104B380045002312F50083C765002303F50083C7EA
:104B48007500AA85A303F50022856244F240056139
:104B58006FD05F96F240624405618280397162CC01
:104B68002A8C594526DA4AD84ED652D456D25AD02B
:104B78005ECE06DE22DCAE8432C636C4BA8B3E8BED
:104B8800C28A468A8359010403494104EFD09F87AA
:104B980025C93246930700FDA2462300F500954734
:104BA800A301C500A30085012301F5002A84194645
:104BB8001105A9C2B68597B0FE1FE780C078230605
:104BC8006401230A240123157401231754012318AF
:104BD800440123193401A2856254F2504259B25952
:104BE800225A925A025BF24B624C2685D2542161BA
:104BF8006FD05F8C814597B0FE1FE7804078C1B7C2
:104C0800F2506254D2544259B259225A925A025B13
:104C1800F24B624C21618280411122C4372400206A
:104C2800130404378347240006C626C28DCBB72455
:104C38000020AA8519461385041497B0FE1FE78043
:104C480080700345240093850414EFF0BF8C224440
:104C5800B24013850414924441016FC07000B24001
:104C680022449244014541018280411126C2B72461
:104C780000209387043706C622C44AC003C73700FA
:104C88009307F00F938404376304F7042A892945AE
:104C9800EFD04FF72A840DCD930700FD2300F500D0
:104CA800A147A30025012301F50083C72400B725E8
:104CB800002093850514A301F5001946110597B046
:104CC800FE1FE780406803C53400A285EFD08FFE41
:104CD80003C7440085476319F702B727002083A755
:104CE800871581C79C4791C382972244B727002024
:104CF800B2409244024903C5474A5D6613060670EE
:104D0800914541016FD07FD9B24022449244024973
:104D180041018280797122D406D626D24AD04ECE5D
:104D280052CC56CA09445DCD2A8903550500AE897F
:104D38005144EF80D054AA8455C5372700209307E3
:104D4800474A83C747008546BA8AFD1793F7F70F86
:104D5800494463F9F6080347C500A1476314F700FF
:104D6800639209089C5C4544B5EF9165938545714C
:104D78001305C00297B0FE1FE780402888DC2A8A06
:104D88004D442DC11306C002814597B0FE1FE78030
:104D9800005F8357090093064A0036852311FA00FD
:104DA80071469305490036C697B0FE1FE780A059A3
:104DB80089472300FA0003C5C400B2460356090018
:104DC80083C54A4A611513351500EFB0A06B2A84D4
:104DD80063860900CE852685EF90907001C42685EC
:104DE800EFF04FFA2285B250225492540259F249F8
:104DF800624AD24A45618280B727002083C7874A22
:104E08000547FD1793F7F70F637AF708894741CAF3
:104E1800011122CC26CA4AC84EC652C406CEAA8957
:104E2800368AB2842E89EF8090452A84D14739C9C1
:104E3800485509C597B0FE1FE780402CF1452685E7
:104E480097B0FE1FE780005648D4CD4705CD83466E
:104E5800C40021478147639FE600630D0A000347AA
:104E6800A5010356050193062501AA854E85EF90F5
:104E7800805BAA8703474400630F09001367670034
:104E88002302E400F2406244D2444249B249224A31
:104E98003E850561828013674700DDB7C9473E85B7
:104EA80082809307900363EBA700B72700209387BE
:104EB800073906053E9503550500828041657D1535
:104EC8008280011122CC2A842E8526CA06CEAE8481
:104ED800EF80F03A1DCDB7470F009387F7230945B8
:104EE80063E4870281450A85414697B0FE1FE78043
:104EF8000049A685231081000A854180230181008D
:104F0800A3010100EFB04039F2406244D244056188
:104F180082804945D5BFB72700202383A74A8280CE
:104F28006FB0604E797152CC2A8A328522D426D24B
:104F38004AD04ECE56CA5AC85EC606D662C4AE8B92
:104F4800B28A368BBA843E89C2894684EF80303370
:104F580015C92A8C63140A0213774B00834745004E
:104F680015CF93E727012302FC008DEC631C09028F
:104F7800639A090205E8ED9B2302FC00832B8C034E
:104F880063910B08B250225492540259F249624A72
:104F9800D24A424BB24B224C45618280F59B93E743
:104FA8000701D1B793E747002302FC0001CC1C4856
:104FB8004146A2852324FC0213058C0197B0FE1FED
:104FC800E780603863930B02D5D80325CC0209C566
:104FD80097B0FE1FE7808012F145268597B0FE1F27
:104FE800E780403C2326AC0251BFE30909F80325BA
:104FF800CC0209C597B0FE1FE7804010F1454A85ED
:10500800F1BF9DC483A70B0299EB91659385357118
:10501800714597B0FE1FE78060FE23A0AB0203A591
:105028000B0219C57146A68597B0FE1FE780A0310F
:105038006388090283A74B0299EB916593852571D3
:10504800594597B0FE1FE78060FB23A2AB0203A57A
:105058004B0219C55946CE8597B0FE1FE780A02E92
:105068001DC483A78B0299EB9165938515715145F2
:1050780097B0FE1FE78080F823A4AB0203A58B023C
:1050880019C55146A28597B0FE1FE780C02B225450
:10509800B2509254F249B24B224CCA865A860259EF
:1050A800424BD6855285D24A624A45616FF0CFE8B5
:1050B800011126CA52C406CE22CC4AC84EC62A8A34
:1050C800AE84EF80D01B25C5AA893945EFD08FB3B0
:1050D8002A8431CDB727002003C9073C631409008F
:1050E80003C909009307000D2310F400AD472301FD
:1050F800F4009385690013053400194697B0FE1F24
:10510800E780602493F71400858085882306F400DF
:10511800A306940023154401A2856244F240D244B8
:10512800B249224A4A85424905616FD0AFB8F24078
:105138006244D2444249B249224A056182804111FF
:1051480022C43724002013048414084006C619C555
:1051580097B0FE1FE78080FA23200400B240224463
:1051680041018280011106CE22CC26CA4AC82EC629
:10517800EF80F01039CDB245B727002003C9073CAE
:105188000CD5AA8463140900034905004145EFD0F2
:105198006FA72A841DCD9307000D2310F500A5479E
:1051A8002301F50083C75400938564001105A30FFC
:1051B800F5FE194697B0FE1FE780E0189C54A285BB
:1051C800F2405CC46244D2444A85424905616FD0CA
:1051D8006FAEF2406244D2444249056182807971DF
:1051E80022D406D62A842EC6EF8070090DCD8346B8
:1051F800C5001147AA8749456393E6029C5FB245FB
:1052080099C383C567010808EF90B036B7F6010067
:1052180093864664100889452285EF90E025B250B0
:105228002254456182805145DDBFB727002083C7DE
:10523800874A0547FD1793F7F70F637AF7048947FD
:1052480021CA411122C426C24AC006C6B2842E8988
:10525800EF80F0022A84D14705C563080900834717
:10526800450093E727002302F5004146A68513056C
:10527800840197B0FE1FE780000D9C481CD481472D
:10528800B2402244924402493E8541018280C94786
:105298003E858280797122D406D62A842EC6EF8074
:1052A800007E01CDB2452285230EB1006C08EF9037
:1052B800B01FB2502254456182805145DDBF6F80D6
:1052C800500AC1671387E7FF6395E502B7270020F7
:1052D80083A7471591EB494582804945B24022444E
:1052E800924402494101828003A30700E30503FEBB
:1052F8000283411122C426C24AC006C6FD172A8964
:105308002E84B284639AF502B727002083A7471535
:1053180091CF9C4381CF829711E9B727002023843E
:105328002717B7270020A38497164DBFA6854A855F
:10533800EFE0DFDC45F5D5B72E85EF80407451DD11
:10534800834705000D45E39B27F922852244B24097
:105358000249A685924441016FC0400E930790030D
:1053680063E8A70441677D1789476384E504411111
:1053780022C426C206C6C547AE842A84631AF5002D
:105388001305C0033385A50242054181EFC0C01152
:105398001315140037240020130404392295B24051
:1053A800224423109500814792443E854101828022
:1053B80089473E858280011106CE2AC6EFE03FD696
:1053C800EF208039EF10E067EF304268B727002000
:1053D80093870737130700F02391E700238207001C
:1053E800B727002032451387474AFD562301D700C7
:1053F800F2402382A74A954505616F60307A59715A
:1054080093970501A6D286D6A2D4CAD0CECED2CC46
:10541800D6CADAC8DEC6E2C4E6C2EAC06EDEC18712
:10542800AE8463DA0756B72A002003C54A4A372CE8
:10543800002037290020EFD04F819307CC452A8DD3
:10544800372B0020372A00203ECEB72C002013042B
:10545800093763130D022165258DB65026549654DD
:105468000659F649664AD64A464BB64B264C964CE0
:10547800064DF25D6561828083470D001307200A9F
:10548800639CE7008349340003552D00C1656A8693
:10549800FD15EFF0AF9A8DA213874A4A834927007A
:1054A800130710096397E71683471D001547639E86
:1054B800E7006A85EFF04F9D6A85EFC0FFF103C5ED
:1054C8004A4AEFC09FF82A8D69B73947639DE716A6
:1054D80003554D008567A5076316F50483258D00E0
:1054E80083CB0500639D0B00850591C937250020F6
:1054F80019461305853897B0FE1FE780C0E40347B7
:10550800093785476317F71063880B0023080936A6
:105518005E85EFF06FCB4DB789472308F936EFB0BA
:10552800F07359BF896713872700631CE504832B31
:105538008D0063800B0E83C70B0089EF83C72B0098
:1055480003C71B00A207D98F2314F40083C73B00AD
:10555800A300F400034709378947631CF70A83C788
:105568000B0091C72308093603C50B005DB78345B7
:105578001400035584008D472308F936EF60106541
:10558800E5B795076319F50083278D0003C5070064
:10559800EFF0AFED15B7F9771387A7FF2A97420702
:1055A8004183914663F1E6049387A7FCAA97C20753
:1055B800C18371476371F70289671387B700631066
:1055C800E50483270A15E38907EE9C43EA85E3850A
:1055D80007EE829715A0370700181307F770B3571F
:1055E800F700858BB9CB83278B15E38707EC9C43A2
:1055F800E38407EC6A858297E31005EC19A8138702
:10560800C7006311E50283278D0083C70700E38580
:1056180007EA9307F00FE381F9EAEA854E85EFC0C0
:105628007FE971BDB907631AF500B727002083A782
:105638004715E38307E8DC4351BF8967938717045D
:10564800E301F5F8F9B73D47639BE70403554D00BF
:1056580089671387D700E30AE5FC13879701E306F8
:10566800E5FCCD07E317F5FA03576400C167FD179A
:10567800631FF700B727002083A74715E38E07E2CB
:10568800DC43E38B07E20965EA854D0599B7B7273F
:10569800002083A7C715E38107E29C43DDB7130702
:1056A800E003E398E7F683472D0005476398E70E84
:1056B80083476D0037270020930D8714E1E783A700
:1056C8000D00D5CF83CB0700A14903457D00130CFE
:1056D8008D00E285EFE09FE883474D01A303AD000D
:1056E80083580D010358ED0003574D002A860345E2
:1056F8003D003EC283572D01E286DE853EC0CE873F
:10570800EFF0CFC583473D0095E7DD4783580D018E
:105718000358ED0083467D0083554D003EC28357F4
:105728002D013EC06287CE8705465E85EF80A06565
:10573800A301AD0083A70D0081C71145EFF03FA07D
:10574800938B8C1603C50B00E30805D6B7270020FA
:1057580083C59716EFE09F9AE30005D683463D0080
:1057680093071003638AF60003564D0083C50B00A8
:105778004E873685EFE0BFB023840C1635BB834BCC
:10578800340099B783278B15834B3400914995DFF3
:10579800DC4385DF81450145829705BF2947639B27
:1057A800E70883476D0037270020930D8714BDE76E
:1057B80083A70D00ADC383CB0700A14903457D0036
:1057C800130C4D01E285EFE07FD983470D02A30357
:1057D800AD008358CD010358AD0103574D002A860B
:1057E80003453D003EC28357ED01E286DE853EC09B
:1057F800CE87EFF0AFB683473D008DFFDD47835876
:10580800CD010358AD0183467D0083554D003EC24E
:105818008357ED0139B7834B340045B783278B1580
:10582800834B34009149D9DBDC43C9DB8145014511
:10583800829769B70947639CE70083270A15E38DB8
:1058480007C6DC43E38A07C66A858297B5B12D4748
:105858006398E70083270A15E38007C69C47DDB7EE
:105868000D476397E7006A868D4503554D0015B1CE
:1058780019476395E7069305610213051031EF3068
:1058880082252C1013052031EF30E22403566D00D9
:105898008357810203554D0063E8C70083568D0086
:1058A8000357610263F7E60093050002EFB0D03EAC
:1058B80021B16374E6002313ED0063F4D7002314C9
:1058C800FD000357CD008356AD0003568D00835568
:1058D8006D0001488147EFB0F03BF9BE1D47639F5B
:1058E800E70003574D00E3E6E7D2F24706073E9785
:1058F80083576D00F1172310F70021BB31476395DB
:10590800E7006A86B14595B735476398E70083276E
:105918000A15E38307BADC4735B739476395E700CB
:105928006A85D92351BE3D476398E70083270A1546
:10593800E38407B89C4B39B741476395E7006A850C
:10594800A9259DBE45476397E70013053003EF007F
:1059580020749DB64947639DE70083278B15E38A2A
:1059680007CADC43E38707CA81450545829755B1D5
:105978004D47639CE70083278B15E38C07C8DC43FE
:10598800E38907C8EA850945D5B76147E393E7C8BE
:105998006A86E145D9BD93F7150089CFB72700205E
:1059A80083A7071589C7DC4399C30145829713C5A7
:1059B800140065B493F7250091CFB727002083A77B
:1059C800871591C7DC4381C781450545829713C573
:1059D800240061B493F745000145E38007A8372404
:1059E80000209307043783C7570013040437A9CF4F
:1059F800FD1793F7F70FA302F400B9E7B7270020C4
:105A080083A7C71491CF85472302F400B727002046
:105A180083A7871591C7DC4381C7814505458297D0
:105A280048442C10EFA0006F2810EFF0EF9EB72726
:105A3800002083D7273B9145A302F400B727002015
:105A480003C5474AEFD08F8C13C5440039B4011100
:105A580022CC2A84554506CE26CAEFF08FC4AA84E4
:105A680013054002EFF0EFC32AC613055002EFF00A
:105A78004FC3AA86228562443246F240B33590006D
:105A8800D24405616FB0B027797122D406D68D470C
:105A98002E84631FF50003D7A50083D6850003D69F
:105AA80065000345340083D54500EFE0DFF909A818
:105AB80089671387D7006311E50403C5250019E535
:105AC8008547B25022543E8545618280B727002021
