:040000006F0010304D
:10000400000000000000000090000020AE0A002064
:10001400A9BDF9F5940000200000000000000000D4
:10002400960000209800002000000000000000005E
:1000340010020020000000008802002000000000E0
:1000440010020020100200201002002010020020E4
:1000540010020020100200201002002010020020D4
:1000640010020020100200201002002010020020C4
:1000740010020020100200201002002010020020B4
:1000840010020020100200201002002010020020A4
:1000940001A001A001A001A001A001A001A001A054
:1000A40001A001A001A001A001A001A001A001A044
:1000B40001A001A001A001A001A001A001A001A034
:1000C40001A001A001A00000000000000000000049
:1000D400000000000000000000000000000000001C
:1000E400000000000000000000000000000000000C
:1000F40000000000000000002A09002000000000A9
:1001040000000000000000009E000020A00000206D
:10011400A2000020A4000020A6000020A8000020C7
:1001240000000000AC000020AE000020B000002061
:10013400B2000020B4000020B6000020B800002067
:1001440000000000BC000020BE000020C000002011
:10015400C2000020C40000207375043001000100B7
:1001640082800100731005308280010003210500A4
:10017400B72200009382028873900230B1A001007C
:100184001301C1F82320250006C006C216C41AC6EE
:100194001EC822CA26CC2ACE2ED032D236D43AD683
:1001A4003ED842DA46DC4ADECEC0D2C2D6C4DAC673
:1001B400DEC8E2CAE6CCEACEEED0F2D2F6D4FAD663
:1001C400FED803A1050009A002457310153492401E
:1001D400A2423243C2435244E2447245825512560B
:1001E400A2563257C2575258E25872598649164A93
:1001F400A64A364BC64B564CE64C764D865D165E8B
:10020400A65E365FC65F130141077300203000000D
:1002140073100134178100001301C1DE73252034EB
:10022400EF00E06C7321003473002030B72200002B
:1002340093820288739002301384018A044003A1DC
:1002440004000245731015349240A2423243C24363
:100254005244E244724582551256A2563257C2574E
:100264005258E25872598649164AA64A364BC64B2A
:10027400564CE64C764D865D165EA65E365FC65FCE
:1002840013014107730020301301C1F806C216C4DC
:100294001AC61EC822CA26CC2ACE2ED032D236D4B2
:1002A4003AD63ED842DA46DC4ADECEC0D2C2D6C402
:1002B400DAC6DEC8E2CAE6CCEACEEED0F2D2F6D492
:1002C400FAD6FED81384418A2320040073251034FF
:1002D4002AC01384C189044023A02400B72200004B
:1002E400938202807390023097020000938242F45A
:1002F40073901234730020300000230304801547E8
:100304002303E48001002302A480828083076480A5
:10031400E3CE07FE23030480828083076480E3CE58
:1003240007FE03454480828083076480E3CE07FE92
:100334002302A4808280411126C44AC24EC006C64C
:100344001377F50BAD47AA892E8995446306F70008
:1003540019456537653F8D444E854537FD59FD1474
:1003640063983401B240A244124982494101828017
:10037400135509011375F50F453F2209CDB7011136
:1003840026CC06CEB704080051371545BD37713762
:1003940069372AC6A53F32459377150089EB136563
:1003A40015001375F50FF240E24405618280FD14D7
:1003B400E9FC0145CDBF397126DC4ADA4ED852D664
:1003C40056D45AD25ED006DE62CE66CCB7E700E0E1
:1003D4007D5783AA070022C603AA470023A0E71873
:1003E40023A2E718B7170040130770052380E7041A
:1003F400130780FA2380E70483C74704930B75FF30
:10040400B684E20793FBFB0F8546AA892E8B3289BB
:1004140037240040E187015763FA76016308D50069
:100424008946130700026313D5000157D98F93F748
:10043400F70FB71C00402382FC0411472303E48018
:100444001305F00F5D3D094CD135636D7C11B70583
:100454000700DA9537870700795563F2E504B38717
:100464009500636EF702370B0800A94733EB65016B
:100474006399F90689E48144513D26850DA0DA8506
:100484000945553D05090345F9FFFD14050B693D73
:1004940081C49377FB0FFDF7DD3569FD7D55B717F3
:1004A4000040130770052380E704130780FA2380B4
:1004B400E70403C74704418B2382E704F250B7E7FC
:1004C40000E023A0571123A24711E25432445259A9
:1004D400C259325AA25A125B825B724CE24C2161BD
:1004E4008280A5476395F90685691309F00FB30661
:1004F4009900B3742B01B6941349F9FFB3749900AE
:10050400856B33796901416B9387F9FFB3F7270151
:1005140099E363FC340193D94900C147E3E637FF0B
:1005240099BF0569C1697D19D9B71305800D638821
:100534006901130500026384790113051008CA8553
:10054400DD3B353D21DD4E99B3843441D9B7DA859D
:100554002D45D533CA94E30099F205097D3BA30FD9
:10056400A9FED5BF9387F9FF93F7F70F6361FC0CDE
:1005740083C71C0413073008631FF70437070800F8
:10058400636BEB04B3079B00B706100063F5D70455
:10059400334BEB0089476393F9068980D549E38C93
:1005A40004ECDA850945413B11090327C9FF91474A
:1005B4002320E48003076480E34E07FE2303348191
:1005C400FD17EDFBFD14110B81C49377FB0FE9FFBD
:1005D4007D3371F5E1B5B717004003C75704B7077A
:1005E40008001377070219E3B78707007955E37802
:1005F400FBEA33079B00E3FFE7F855B58547E38241
:10060400F9F2DA852D45053B9389F4FFE38504E689
:10061400293393F7390091EB8326048003270900DB
:1006240093074900E39AE6E43E89CE84F1BFB547D7
:100634006396F9001305900BC93135BDB147130515
:10064400B00AE38BF9FE99476391F904B7050800F2
:10065400B365BB002D45C53181448D4BA149753926
:1006640063967401832704802320F9008504E398AA
:1006740034FF8327048013172B01635507002312CB
:10068400F900D5BB2322F900FDB39D476399F90214
:1006940081451305B0044531BD44232009002322BC
:1006A4000900FD599D3993F77400CA9703C70700E1
:1006B400FD14398D2380A700E39634FF6DBBA14759
:1006C4006392F9046D398144630D0B008D479304E3
:1006D400C0036308FB009304000563048B019304C7
:1006E40040041375C507E30895D8194539313939DC
:1006F4000545213126850D3909453D314931E31C34
:1007040005D669BB91476399F90013056006F53670
:10071400F53E130590090DB7E38F09D4F154A9BB35
:100724009387018588438280938701859C43411187
:1007340006C6850723A8F18495283C41FD173CC1D2
:1007440081E75C5D3CC1BD20B24041017DA84111FF
:1007540022C406C6113483D781872A84A9E39387E8
:1007640041888843973000E0E780A0AD1307F5FF88
:100774009316370093870161B6978C43938641871C
:1007840088429387C5FE630CF5002388E18623AA7B
:10079400F18683C741857105A10599E7D532228584
:1007A4002244B24041017DBA1522D5BF93874187C7
:1007B40088438280411106C64532938741879C4312
:1007C4000546AA8603C747033D8B631DC702D04B6A
:1007D400984F6309E60258C210C303C757039386B0
:1007E400470194CF131637001387016132975043A2
:1007F40014C290CF54C3D8CBB532913FB240014517
:10080400410182803685B93AD5BF397126DA240090
:1008140006DE4AD84ED656D25AD05ECE22DC52D408
:1008240026C626C4F53DAA8B37090080EFF0DF9277
:10083400AA8A938941891349E9FF0D4B03A409004E
:10084400631034035685EFF0FF91F2506254D25492
:100854004259B259225A925A025BF24B2161828068
:100864004848130AC4FE3385AB40E36DA9FC5285A6
:10087400973000E0E780A02F834754FF13F7270049
:1008840001E7F99BA30AF4FEA2474844C0C31CC075
:100894001C4422C444C082976135A247AA8BE38FCB
:1008A40097F818405C405CC398C3834754FF40C02A
:1008B40000C013F73700E31367F9F99BA30AF4FEAA
:1008C4005285973000E0E780A0338DBF9387418A3B
:1008D4009C4399E323AEA18823A0B18A854723A230
:1008E400F18A1167B7E700E023A0E7208280411175
:1008F4001375F50722C40A0517F4FFFF1304047DDA
:100904002A941C4006C691CF973000E0E780808689
:100914001C4082972244B2404101173300E0670033
:100924002386B240224441018280411106C6ED3B38
:10093400B240B7F700E023A2070041018280B71755
:100944000040930670052380D704130780FA2380A0
:10095400E7040100010003C6B7041376F60DA3856E
:10096400C704238007041376050259CE03C6A700E3
:10097400118A1DE22380D7042380E70401000100CB
:1009840003C7A700136747002385E7009307004BBD
:1009940001000100FD17EDFFB71700409306700535
:1009A4002380D704130780FA2380E70401000100A1
:1009B4007D892394A7000100010001000100238028
:1009C40007042380D7042380E704010001003727AC
:1009D400004093061005A303D78023800704B717AC
:1009E4000040130770052380E704130780FA23806F
:1009F400E7040100010003C7B70413670708A385D0
:100A0400E7042380070482801376050441C603C6E5
:100A1400A700418A1DE22380D7042380E704010054
:100A2400010003C7A700136707012385E7009307A5
:100A3400007D01000100FD17EDFFB717004093068C
:100A440070052380D704130780FA2380E70401008C
:100A540001001376F501136606042394C700010010
:100A6400010001000100238007042380D70413063A
:100A740060042380E7046318C500010001003727E0
:100A84000040894689BF01000100372700409306D2
:100A9400200591B72380D7042380E70401000100D7
:100AA40003D787001367070C2394E7000DBF814623
:100AB400014681451145EFF01F90B7170040130719
:100AC40070052380E704130780FA2380E7040100FC
:100AD40001007D572396E70203C7670413671700D5
:100AE4002383E7042380070401A0BD473305F502EF
:080AF40001007D1575FD8280F3
:100B0000971100209381018B177100201301814FF1
:100B10001305400097F5FF1F9385C54E170600206B
:100B20001306C6FD63FAC5008322050023A0550005
:100B300011059105E3EAC5FE17550000130585FE72
:100B400097050020938585FB1386818163FAC50094
:100B50008322050023A0550011059105E3EAC5FE97
:100B60001385818197350020938585116377B500C2
:100B7000232005001105E36DB5FEFD42739002BC14
:100B8000854273904280B72200009382028073A056
:100B9000023097F2FF1F9382E24693E23200739095
:100BA0005230972200009382221C739012347300FB
:100BB000203023ACA1808280938781819C4381C7B0
:100BC00003A30700028301458280938781819C43B0
:100BD000D9CBDC43011126CA06CE22CC4AC84EC668
:100BE00052C456C2AA84829783C7018413F7470070
:100BF00035C3858B99C7175500001305E5A8EF107D
:100C00007041138901840144CA89975A0000938A6C
:100C10006AA8714A83470900858B81CBB38784001A
:100C200083C507005685EF10F03E0504E31444FF2A
:100C300083C70900858B99CF6244F240D244424970
:100C4000B249224A924A17550000130525AE0561A4
:100C50006F10503CF2406244D2444249B249224AA9
:100C6000924A056182808280938781819C4381C7FB
:100C700003A387000283828083D70182638FA70248
:100C80002390A182938781819C4385CBDC4701110E
:100C900006CE2AC6829783C70184958B1547B24535
:100CA000639AE700F240175500001305259F056180
:100CB0006F105036F24005618280828083D7E181D7
:100CC000638FA702239FA180938781819C4385CB5B
:100CD0009C4B011106CE2AC6829783C70184958B4F
:100CE0001547B245639AE700F24017550000130517
:100CF000A59805616F101032F240056182808280F4
:100D0000397122DC4ED656D25AD05ECE06DE26DAB5
:100D10004AD852D462CC9389818CEF10503C014464
:100D2000138B0184B94B954A2285EF10D04803DA22
:100D300009002A8C6302AA0683470B00898B91C3A2
:100D4000792801498544334A8A01B3F744018DCF9C
:100D5000B3779C00B337F0002305F1002304210191
:100D6000A3048100EF103046136515002316A1007F
:100D7000B2452245C9202245B245EF10A05083D785
:100D80000900A58F2390F90005098604C204137990
:100D9000F90FC180E31B79FB05041374F40F890973
:100DA000E31454F9FD572314F10023050100EF105B
:100DB0009041136515002316A100B2452245A528D0
:100DC000EF10204C6254F250D2544259B259225A78
:100DD000925A025BF24B624C21616F10D00D0111EF
:100DE000175500001305858C22CC26CA4AC84EC66A
:100DF00006CE0144EF101022975900009389498CC8
:100E0000175900001309098C95441375F40FEF105E
:100E1000903AEF1040442A86A285CE864A85050482
:100E2000EF10501FE31394FEF2406244D244424953
:100E3000B2490561828079719397050106D62AC46B
:100E40002EC6C183231AA10091CB13170501C167D8
:100E50004183FD176304F700EF10C0428357C100C0
:100E6000231F01002245231EF100F245B2504561C7
:100E70006F00D0576308052041111307E50706C628
:100E800022C426C21377F70F8946AA8763EBE604CC
:100E900013072008630FE50213073008630FE5020C
:100EA000114493047004093B618D6318051C268569
:100EB000EF10E007EF10203313054006EF2030421B
:100EC0002685EF10A0182244B240924441016F10D1
:100ED0008031094493049003F9B705449304300525
:100EE000D9B71307C5FF1377F70F1306000A636519
:100EF000E600EF10C003C1BF130705021377F70F19
:100F00001D46636CE6009377750005453315F500C3
:100F10001375F50FEF1040247DB71307B505137750
:100F2000F70F63E5E6021307500A13051008638AFA
:100F3000E7001307600A130520086384E700130520
:100F400030082244B240924441013DB31307850565
:100F50001377F70FD94663E2E6121307800A1305E9
:100F6000200E6387E7101307900A1305900E638124
:100F7000E7101307A00A1305A00E638BE70E1307F3
:100F8000B00A1305500B6385E70E1307C00A13055B
:100F9000600B638FE70C1307D00A1305300B6389CE
:100FA000E70C1307E00A1305400B6383E70C1307F4
:100FB000F00A1305700B638DE70A1307100B130576
:100FC000C00C6387E70A1307000B1305D00C63817D
:100FD000E70A1307200B13053018638BE708130784
:100FE000300B1305A0186385E7081307400B1305A2
:100FF0002019638FE7061307500B13054019638907
:10100000E7061307600B130510226383E706130737
:10101000700B13053022638DE7041307800B130553
:1010200040226387E7041307900B13055022638166
:10103000E7041307A00B13056022638BE702130775
:10104000B00B130570226385E7021307C00B13056D
:10105000A022638FE7001307D00B1305F006638906
:10106000E7001307E00B130500076383E700014562
:101070002244B2409244410191B1B2402244924490
:10108000410182808280630C050C41111307E50742
:1010900006C622C426C21377F70F894663EAE60420
:1010A00013072008630EE50213073008630EE502FC
:1010B0001144930470040936618D49CD2685EF00F3
:1010C0001067EF10401213054006EF2050212685CF
:1010D000EF00D0772244B240924441016F10A0103B
:1010E000094493049003C1BF054493043005E1B75C
:1010F0001307C5FF1377F70F1306000AE37AE6FC20
:10110000130705021377F70F1D46636CE60093770C
:10111000750005453315F5001375F50FEF10C00484
:1011200055BF1307B5051377F70F63E8E6002244B0
:10113000B24092440145410181B69307850593F77A
:10114000F70F59476368F7002244B24092440145C3
:101150004101ADB6B2402244924441018280828076
:1011600009C9411106C6EF00307FB24041016F103E
:101170008007828009C9411106C6EF00F07EB240A7
:1011800041016F1040068280411106C6EF10000237
:10119000EF00507AEF102005EF106066EF10C043AB
:1011A0000145D93CB2400145410109BE411106C685
:1011B000EF00307DB2404101C1BF797152CC06D6FB
:1011C00022D426D24AD04ECE2A8AEF10400C631A7F
:1011D00005141946D2852800EF30C07B8357810063
:1011E00083546A0003574A002312F1009180834917
:1011F0002A00BD886307071293960701C167C18261
:10120000FD176380F612230531012316E100B24574
:101210002245EF00504A2A84AA855285EF10807A31
:1012200063010510EF00F042EF00703A131604015D
:1012300041829357C60017470000130767498A0782
:10124000BA979C43BA978287BD672182E18F9374D6
:10125000F60091C392041374F40F6381090291C4E0
:101260002685EF007072EF00107822852254B2506C
:1012700092540259F249624A4561EDBE22852135F8
:10128000CDC02685EF0050712254B25092540259BD
:10129000F249624A45616F001075BD672182E18F96
:1012A00009671379F6006383E70012091374F40FDA
:1012B0000DC08547630FF406638C090891CC834702
:1012C0006A0013F7170063090722BD8B2303FA0096
:1012D00021A06389090291E84A852254B2509254B0
:1012E0000259F249624A4561A5BD85474A85E396A0
:1012F000F4FE2254B25092540259F249624A4561B6
:101300006F00306B81ECEF00306B4A852254B25095
:1013100092540259F249624A4561A9BD8547E39456
:10132000F4FEB250225492540259F249624A456185
:101330008280638B09009547E3E597FEEF007061BB
:101340003375250151D9D1B79147E3EC97FC75BFAF
:10135000CDDC22852254B25092540259F249624A9D
:10136000456115B329820D8A0DC28547E31BF6FA44
:101370001375F43F6393090001452254B25092540F
:101380000259F249624A456115BA1375F43F6393F5
:10139000090001452254B25092540259F249624A5E
:1013A00045616FF07F8D1375F40F638D0900EF00B9
:1013B000507C2254B25092540259F249624A45611B
:1013C0006F108021EF10E00CEDB793770630ADEF92
:1013D000E39909F4135536009377C5013D881377D7
:1013E00006013314F400014511C73D453315F500DE
:1013F0001345F5FF29820D8A89476301F60263E9E7
:10140000C7028547418D6308F6022254B2509254B8
:101410000259F249624A45616F00501C418D2254C5
:10142000B25092540259F249624A45616F00D01B92
:10143000EF00D01A22852254B25092540259F24938
:10144000624A45616F00D018935786008D8B13D781
:1014500017006384090013F71700E30407EC135522
:1014600036009377C5013D88137706013314F400E5
:10147000014511C73D453315F5001345F5FF298298
:101480000D8A89476301F60263E9C7028547418DEA
:101490006308F6022254B25092540259F249624A49
:1014A00045616F00D019418D2254B25092540259B7
:1014B000F249624A45616F003019EF0050182285E9
:1014C0002254B25092540259F249624A45616F0067
:1014D00070161374F40F9307000F630EF40A63E998
:1014E00087049307040493F7F70F7D47637AF706A1
:1014F000638E0910638804102285AD3A130474FCCE
:101500001374F40FE947E3EE87E0B747000485075B
:1015100033D487000588E30604E02254B250925485
:101520000259F249624A1305400645616F20205B6B
:101530009307200F6301F40A6361F4089307300FE7
:10154000E318F4FA6387090A2254B25092540259FC
:10155000F249624A135586007D8945616F00D009C2
:10156000135586007D8993740401638C0900EF0094
:1015700030091375F400E38204D612041375F40FD6
:10158000A9BBEF00F0081375F400E38104D812043E
:101590001375F40FA5BB9547638309009147E3E2F8
:1015A00097D82254B25092540259F249624A1355C4
:1015B00086007D8945616F00F006135586007D89A0
:1015C000638009022254B25092540259F249624A8D
:1015D00045616F00F002135586007D89E38409FEA2
:1015E0002254B25092540259F249624A45616F0046
:1015F00030022254B25092540259F249624A456173
:101600006F00407F135586007D896DBFE39304D43E
:10161000135586007D89E9B721829375F40F5285B1
:101620003D8AEF0010472254B25092540259F249B9
:10163000624A45616F0020681374F40FE31304CE0F
:10164000E38109CEA53613052003EF20404922543B
:10165000B25092540259F249624A45616F10003A01
:101660009375F40F2254B25092540259F2495285A4
:10167000624A21823D8A45616F00F04179719397FA
:10168000050106D6C183231EA10089E70145B2509A
:10169000456182800357C101C167FD17E308F7FE6A
:1016A000EF00700193170501C18313D7C7003907F5
:1016B0009376F7003547E36BD7FC05473317D70020
:1016C000896693860640F98E85EE9377073091E719
:1016D000137537003335A0005DBF9377F50F1307FF
:1016E000000C0545E3E5E7FA1307F00D0145E3704B
:1016F000F7FABD0793F7F70F09453335F50041BFFA
:1017000013D5B700058961B74111410182804111AC
:1017100041018280411122C426C206C603C4D1827F
:101720009384418D83C7C18263978700B24022446E
:1017300092444101828093173400A6978843CC439A
:1017400005041D88E937F9BF938741828843CC435C
:101750007DBF9386418283C7660093F7070F95EBA1
:1017600083C761829DC7C16503C7D18283C7C18218
:10177000FD151388418D9308700C639DE7008280EE
:1017800005071D8B83C7C1826398E700F24005619E
:1017900082808280011106CE83D7060003D5818224
:1017A0002316F10071DDC207C183E38BB7FC9317E9
:1017B0003700C29703C6170003C35182E312C3FC6C
:1017C00003C6070003C34182E31CC3FA03C6270014
:1017D00045FA03D64700098E42064182E3E2C8FA81
:1017E00003C76600138541823D8B1367070123857C
:1017F000E18203C767003D8B136707012383E7007E
:10180000EFF0BF9BF240056131B71D71A2CCAA85F4
:101810002A8419462810A6CACEC6D2C4D6C286CEFD
:10182000938A4182CAC8DAC0EF30C01603D50A00D5
:1018300083D68182034704002314A1008347140048
:101840008344240083594400568A6386062813166D
:101850000501C1654182FD15630FB62603C961828A
:10186000630B092603C66A00B386D940C206C1824B
:101870009308700C1378060F63EED81A63160812DB
:10188000268B630AB5022304E102A304F102835507
:1018900081026392A50285E03D8A136606012385D5
:1018A000C1825D355685EFF05F9183C76A002303DF
:1018B000F400014951A82304E102A304F102835674
:1018C00081022310D102639A0900E5D483476A009C
:1018D00093E717002385F182E9BF8346110203468F
:1018E0000102A302D1022302C10203564102C166D2
:1018F000FD16E30CD6FCF9F883C6D18283C5C182FC
:101900001385418D639DB60423050102231631031F
:101910002255B2554D231317050141833183854666
:101920009377F50F63FEE6048D4663EAE6060567E6
:10193000130707F0798D4205418139C903476400D7
:101940001377070F31E75A89F64066444A85D64433
:101950004649B649264A964A064B25618280139627
:1019600036002A96034816006319F800034806005B
:101970006315E800034626000DFE85069D8A59B7CB
:101980000567130707F0798D4205418111C1C5DF55
:101990009387070293F7F70F1D47E376F7FA22853F
:1019A000EFF0BF814A8B45B76307B5022304E1021C
:1019B000A304F10283558102639FA50089EC2303F0
:1019C000C4002285EFF06FFF2146A2855685EF20E7
:1019D000707C9D3B95BF23059102231631032304A0
:1019E000E102A304F1022255B2554939630C051EE8
:1019F000638A041E83274A000547D183BD8B637128
:101A0000F70283570A0023090102231A310323181E
:101A1000F10283476A000818230BF102EFF0EFF997
:101A20002146A28513854182EF20D0761D33293BC4
:101A3000054919BF63160802A304F1022304E10259
:101A400023059102231631032255B2557539568567
:101A5000EFF0AFF623A2018223A40182F53191BDFC
:101A60006387A5022304E102A304F10283558102E6
:101A700083D64182639DD50099E82303C400228563
:101A8000EFF0AFF323A2018223A4018275BD2305E9
:101A90009102231631032304E102A304F10222552B
:101AA000B255E93E63000514638E041283274A0091
:101AB0000547D183BD8BE375F7F683570A00230DE5
:101AC0000102231E3103231CF10283476A002818F8
:101AD000230FF102A1B783550A00231CB1006385CF
:101AE000060E13950501416641817D16630EC50CF6
:101AF00003C96182631A090CB386D940C206C18248
:101B00001305700C6362D50A2689638D040C630685
:101B1000B6062304E102A304F1020356810283D630
:101B20004182631CD60483576A00858BA1E3034777
:101B30006A009377070F9DCB2303E4001307000F80
:101B4000638EE7008357640093F7070F138707013D
:101B500083476400BD8BD98F2303F4002285EFF007
:101B6000CFE52146A2851385418295B52146A28500
:101B700013854182EF201062C1BB23059102231619
:101B800031032304E102A304F1022255B255FD34CE
:101B9000E31805E883476A00228593E71700238549
:101BA000F182EFF08FE14DB3A304F102230591021E
:101BB000231631032304E1022255B255B13623A284
:101BC000018223A4018231B591CC23059102231611
:101BD00031032304E102A304F1022255B255793CFA
:101BE000E31005E42285EFF04FDD99B579712AC441
:101BF000280006D622D42EC6093905C50357810010
:101C00008357C100231CE10091CB4207C167418388
:101C1000FD176305F7002245B245D53C1384418D7D
:101C200049A022468357C100B245231AC100FDD7FF
:101C300013170601C1674183FD17E301F7FE03C7D0
:101C4000C182930717009D8B83C6D182638ED70014
:101C5000931637001387418D369710C34CC32386E4
:101C6000F182EFF03FAB5DBFEFF04FD423860182EE
:101C7000A386018223A2018223A4018245B70E0517
:101C8000229561360DC583C7D1828E07A2978843FE
:101C9000CC43EFF0DFA783C7D18285079D8BA38656
:101CA000F18203C5D18283C7C182E39AA7FCB250F7
:101CB00022544561828063080510797126D24AD08A
:101CC0004ECE52CC56CA5AC85EC662C466C206D64A
:101CD00022D4AA870149930A500793098007130B5E
:101CE000F006930B6007130C7007930C4007094A2A
:101CF000854403C507001384170063EDAA026377C8
:101D0000950B630345096361AA02630B9504B25006
:101D1000225492540259F249624AD24A424BB24B7F
:101D2000224C924C456182809147E362F5FEEFF0D0
:101D30006F9489A86307350963E9A900630F7507E4
:101D4000E31785FD4A851D292DA89307C50793F73D
:101D5000F70FE36EFBFA1375F507EFF0CFB21DA096
:101D600003C51700138427001D479307050293F747
:101D7000F70FE36EF7FA1D893395A4001375F50F7D
:101D8000212195211D453DA003C51700138427007F
:101D90001D479307050293F7F70FE360F7FC1D89D2
:101DA0003395A4001375F50FC52EE1BF03C51700C9
:101DB00013842700EF10B05219A0612E2A89A28740
:101DC0000DBFC1267DBF828023AAA182C1A18280CE
:101DD000138701831C435D8D08C345A913870183C5
:101DE0001C437D8D08C355A1138701831C433D8D82
:101DF00008C361A90145C9BF85473395A700E9B765
:101E000085473395A700938741839C435D8D6DBFC4
:101E100085473395A700938741839C431345F5FF7E
:101E20007D8D5DB785473395A700938741839C439C
:101E30003D8D59BF938741839C435D8D71B79387D7
:101E400041839C437D8D49B7938741839C433D8D5E
:101E5000A5BF82807971938741834AD003A9070087
:101E6000938701839C4322D44ECE52CC06D626D2F1
:101E70002316A1003369F9007D4485497D5AB35783
:101E80008900858B9374F40F91EF7D14E31944FF5F
:101E90008144B2502254268502599254F249624A32
:101EA00045618280B2452685EF0050504205418150
:101EB000E30D35FDF9BF7971C20506D622D426D2CD
:101EC0004AD02AC4C181231EA100B9C91317050134
:101ED000C1674183FD176305F7048347A10093544D
:101EE00085001379F50F93F4F40F138441918DC39A
:101EF0009537B947B384F40226944A942300A4008A
:101F00002254A245B2509254025945616F00104AC2
:101F1000B947B384F40226944A9403450400CDB72C
:101F2000B25022549254025901454561828083C7C0
:101F3000B180AA85B9C383C7C181A1C31357350036
:101F4000E94763E2E70297F7FF1F9387A7C69C4321
:101F50001D898545BA97B395A50003C51700C98D9E
:101F6000A380B700828083C70184858BD1CB1735CE
:101F700000001305E5796F00F00913888183830859
:101F8000080097F7FF1F9387E7C28843138EA1834A
:101F9000638808049387918303860700830E0E00ED
:101FA0007D57B2867D5F1943B307D50083C72700ED
:101FB0006388F5046314E70191E336878506B3E689
:101FC0006602E393D6FF631DD600FD57631BF7023D
:101FD000050633666602FD18238C1183A38CC1822B
:101FE00083070E0019473E958507B3E7E7022301F3
:101FF000B500238DF182834708008507238CF18289
:10200000828093071700B3E7670285461946B30835
:10201000F50003C3280063070302330FE50005073B
:1020200023016F00238108003367C7028507B3E7E8
:10203000C702E39ED7FD958F9907B3E7C702238DAB
:10204000F18279BF850693F6F60FCDB783C7B180CD
:10205000AA85B1C783C7C181B9C393573500694702
:102060006365F70217F7FF1F1307C7B4184393758B
:1020700075003E97834617008547B397B70093C70F
:10208000F7FFF58FA300F700828083C70184858B5B
:10209000C9CB173500001305A5696F00A07793879A
:1020A000818383870700B5CF97F6FF1F938686B09D
:1020B00088429386A1830388060003C791839948C9
:1020C0003306E50003432600631EB304FD17E20751
:1020D000E18723010600238CF18289E7A38C01822A
:1020E000238D018283870600194693865700B3E645
:1020F000C6026318D7021387918303060700994627
:10210000950733E7D7029317870115073367D7027F
:10211000E1872A970347270019E3E393C7FE238D3E
:10212000F18282800507336617031377F60FE319F0
:1021300006F9828097F7FF1F9387C7A790437147DF
:102140008547B306F600238006008507E39BE7FE7C
:10215000828003C5C18382801387C18383470700C0
:102160005D8D2300A70082809387C18303C707008A
:102170001345F5FF798D2380A7008280238EA182ED
:102180008280238E018282801387D1838347070058
:102190005D8D2300A70082809387D18303C707004A
:1021A0001345F5FF798D2380A7008280A38E0182DD
:1021B0008280A38DA1828280A38D0182828097F785
:1021C000FF1F9387279F94430145854771473386B7
:1021D000F6000346060001C605051375F50F8507D1
:1021E000E397E7FE8280411197F7FF1F9387879C53
:1021F00022C403C7D183804383C7C18306C65D8FD2
:102200009387B183838707002300E40081CBD98FB4
:102210002300F4006D3719C1A38D01822285224469
:10222000B24041016FE07F9A9317450011815D8DA7
:102230001375F50F9317250009851375350393F76B
:10224000C70CC98F13951700858793F7570513752A
:10225000A50A5D8D8280411126C2AA841375F50FEF
:1022600006C622C4D1372A8413D58400753F93173C
:102270008400B24022445D8D420592444181410177
:10228000828082804111410182808280828001456A
:10229000828001458280828083C7918413F7170072
:1022A00015C383C761801547B387E7028983130786
:1022B000F0071305F0076366F700054599C313F5AA
:1022C000F70F828013F7270001CB83C76180154782
:1022D000B387E7028583E1BF918B99C783C761808C
:1022E0001547B387E702E1B703C7A1840DC383C6CF
:1022F000718083C76180E375D7FEB387E702154716
:10230000B387E702B3C7D702C207C1834DB795476A
:102310007DB783C7918413F7170009CB83C78180EA
:10232000898305459DC313F5F70F05A013F7270013
:1023300009C783C781808583EDB7918B81CB83C724
:1023400081801305F007E37EF5FC828003C7A1843A
:1023500019CF83C6918083C781806365D700C20788
:10236000C183C5B7B387E702B3C7D702D9BF8547D3
:102370005DBF411106C69307000F631AF500293FA0
:102380003305A0402383A184B2404101828093079A
:10239000100F6314F5000937F5B79307200F631882
:1023A000F500DD3D3305A040A382A184F1BF930772
:1023B000300F6314F500CD35C5BF9307900F63163A
:1023C000F500813FA383A184C1B79307A00F6316D3
:1023D000F50081373305A040F5B79307B00F6318B8
:1023E000F500053F3305A0402384A18471BF930706
:1023F000C00F6314F500313FC5BF9307400F631949
:10240000F50083C7418493E717002382F184ADBFB1
:102410009307500F6317F50083C7418493E72700A4
:10242000EDB79307600F6317F50083C7418493E707
:102430004700E1BF9307700F6317F50083C741841E
:1024400093E78700D9B79307800F6317F50083C719
:10245000418493E7070155BF9307D00F6319F50037
:1024600083C7918493E71700A384F18431BF930756
:10247000E00F6317F50083C7918493E72700EDB75A
:102480009307F00FE312F5F083C7918493E74700B9
:10249000E1BF938741849306000F03871700631AF7
:1024A000D5008386270063D40600238301841DC3DF
:1024B00082809306100F6317D50083862700E346BA
:1024C000D0FEF5B79306200F6312D502E35107FE45
:1024D000A382018403C7270083C6370083C7470050
:1024E000558FD98FF1F72385018482809306300FB1
:1024F0006315D500E34EE0FC5DBF9306900F6319B2
:10250000D50083863700E354D0FAA383018445B70E
:102510009306A00F6317D50083863700E3D906F82A
:10252000EDB79306B00F6319D50083864700E3D05B
:1025300006F823840184A5BF9306C00F6317D50056
:1025400083864700E347D0FE9DB79306400F63188C
:10255000D50083C60700F99A2382D18489BF9306E8
:10256000500F6316D50083C60700F59AF5B793069A
:10257000600F6316D50083C60700ED9AF1BF93067E
:10258000700F6316D50083C60700DD9AF1B7930676
:10259000800F6316D50083C60700BD9A75BF9306EA
:1025A000D00F6319D50083C6918493F6E60FA384F8
:1025B000D184F5BD9306E00F6317D50083C69184DF
:1025C00093F6D60FEDB79306F00FE312D5EE83C660
:1025D000918493F6B60FE1BF83C7018441118D83C7
:1025E00006C622C4858B638D070A173500001305C4
:1025F00025160D2483C54184173500001305851762
:10260000112C173500001305651713844184192414
:10261000830514001735000013058516E52A1735C4
:1026200000001305254BFD2283052400173500000B
:1026300013050515C522173500001305A549D92A2C
:10264000830534001735000013058513E122173583
:102650000000130525487D2A830544001735000036
:1026600013050512452A173500001305A5115D2233
:1026700083C5A1841735000013050511612A17359C
:1026800000001305A510792283C591841735000039
:102690001305850F4122173500001305650F9D2A8C
:1026A00013854184EFE04FDC392EB2402244239160
:1026B000A18441018280011103D5218406CE22CC60
:1026C00026CA4AC84EC652C4312E83C7A18495CFAC
:1026D00003C751806343E5021384418483061400D9
:1026E0008304240003093400830944008DE633E7A2
:1026F000240133E7E900631F070EF2406244D2442D
:102700004249B249224A0561828003C74180A946F5
:102710003307D702C1B71307F00F6385E7008507BA
:102720002385F1846356D000EFF01FB7A382A18404
:102730008307140063D80700EFF01FB63305A040ED
:10274000A382A18463569000EFF01FB52383A18478
:102750008307240063D80700EFF01FB43305A040BF
:102760002383A1840305140015CD030A2400630B01
:102770000A02EF20C013973400009384A401904014
:10278000D440EF105041EF20000CA382A184528569
:10279000EF20E0119040D440EF10F03FEF20A00A6E
:1027A0002383A18463562001EFF0BFB6A383A184E5
:1027B0008307340063D80700EFF0BFB53305A040AE
:1027C000A383A18463563001EFF0BFB42384A184B6
:1027D0008307440063D80700EFF0BFB33305A04080
:1027E0002384A1846244F240D2444249B249224A3D
:1027F0000561DDB31307F00FE393E7F2A1B7938709
:10280000418423A007002382070023850184A38439
:10281000018482801971AED2B2D4AA85D010080882
:1028200086CEA2CCB6D6BAD8BEDAC2DCC6DE32C6F6
:10283000EF2060242A840C081375F50FD92C22850B
:10284000F640664409618280011122CC26CA4AC83A
:102850004EC652C406CE15447D599739000093895F
:10286000E92A3D4A85447D146315240339447D5982
:1028700097390000938989F23D4A85447D14631D90
:102880002403F2406244D2444249B249224A0561DB
:102890008280B387890003C507006368AA008D455D
:1028A0003395A400EF10607F7DBF41158D453395B2
:1028B000A400EF10F00845BFB387890003C50700E7
:1028C0006368AA0089453395A400EF10007D7DB7A9
:1028D000411589453395A400EF10900645B7411185
:1028E0001386419806C622C403C3A1800145014E48
:1028F000B28E371700408548973F0000938F0FEA4C
:10290000BD42B943154F8327870A3398A8008146F3
:10291000B3E707012324F70A8145B387BF0083C7C4
:10292000070063E9F2060324470AB397F800E18F32
:10293000B337F00091C7B397B800DD8EC206C182ED
:102940008505E39C75FC835706006386D70023103A
:10295000D600054E15438327C70A050509063368C7
:10296000F8002326070BE310E5FB63040E00238524
:10297000618083C7A18091CBFD1793F7F70F238563
:10298000F18089CF0545EF108015B24022440545FE
:10299000410182800324470CC11741BF03A70E00E9
:1029A00083D7C19823ACE19603A74E0023AEE196EE
:1029B0002390F198D9BF060593878197AA9703D5ED
:1029C000070082808280411106C697E0FF1FE780E2
:1029D00060D5C167FD173375F502B240410142056C
:1029E00041818280411122C406C62A84E93F018DBB
:1029F000B24022444205418141018280828082802E
:102A00002A8695450545B9A001112317A100130693
:102A1000E1008945094506CE3528F24005618280EE
:102A200001112317A1001306E10089450D4506CECB
:102A30001520F2400561828083C7B1802A8681CB50
:102A400083C7C18189C7F1451305000821A0A145AD
:102A50000145EDBF411122C406C68D472E84B285C3
:102A600063EDA70089476374F5080DCD85476309B9
:102A7000F504B24022444101828093070008E31A22
:102A8000F5FE930700F82286138511BD2388F1BC5B
:102A9000EF1050709387418B0504884322869385FD
:102AA00001BD1DA89387018B884322861305050469
:102AB000EF10506E22852244B24041016F10900900
:102AC00022861385D180EF10F06C9387418B884369
:102AD000050422869385C18013050504EF10906BD1
:102AE0001375F40F2244B24041016F101008238681
:102AF000A1848347060005049385C184A386F184DD
:102B00008347160022862387F1849387418B88436D
:102B1000E1B75D712A869307F003A300A1001305B6
:102B2000210086C62300F100EF10D0669387818BC9
:102B300088438A851306000413050504EF10906589
:102B4000B6401305000461616F10900393870199EB
:102B500023A6F18A938701A523A8F18A938701AD63
:102B6000411123AAF18A938701B506C623ACF18AE5
:102B7000EF106076B240B7E700E03707400023A0CF
:102B8000E710410182808147938681C01307004688
:102B90003386F6000346060001EA8507E39AE7FE5E
:102BA0008147A387F18482808547E5BF41112316C1
:102BB000B1009307B00863ECA7000347C100B54715
:102BC00063E7E7008347D100914663F5F6000145CE
:102BD0004101828083C6F1849DC6F146B387D70246
:102BE0000607BA971307C0083305E502138781C0AB
:102BF000AA97C207C183BA9703C5170083C7070006
:102C000022053E95F1B7B946B387D7029306600413
:102C10003305D502AA97BA9786071737000013071E
:102C2000A782BA9703D5070065B7411122C406C62B
:102C3000937715002A8481CF93060046138681C0BE
:102C400081452D4597D0FF1FE78020772D3F937753
:102C5000240081CF93060040138681069305004629
:102C60002D4597D0FF1FE7804075118819CC22446D
:102C7000B2408565E146138601BF938505862D45E3
:102C8000410117D3FF1F67004373B2402244410143
:102C90008280014582800145828001458280014514
:102CA0008280411122C426C206C6173400001304D4
:102CB000A4E697340000938464E663679400B2400E
:102CC00022449244410182801C4011048297F5B74E
:102CD000411122C426C206C617340000130404E4BE
:102CE000973400009384C4E363679400B2402244A5
:102CF0009244410182801C4011048297F5B7411132
:102D000006C6F937B24041016F10E02B4111D1479F
:102D1000094793060020014697050000938565FE4C
:102D200017350000130585A806C6EF009044B24091
:102D300041016F005060411106C697D0FF1FE78028
:102D4000E041EF10A024DD29EF108017EF005014B0
:102D5000753FEF1080175128EF00B016B2400145C3
:102D600041018280411106C6F937B2400145410157
:102D70008280411122C406C626C24AC01384C1877C
:102D800097D0FF1FE780803D1C40AA84639B87008B
:102D90002244B24092440249410117D3FF1F670009
:102DA000A33C1C409443D843C84B1389C7FED8C2E8
:102DB00014C3DCC39CC3F92D4A85EF009009268516
:102DC00097D0FF1FE780403A65BF411126C206C673
:102DD00022C49384014F1384014E1C4091C38297F7
:102DE0001104E31C94FE7137FDB7411122C4138412
:102DF00081462285930800021D489307001013871F
:102E0000014F814617060000130666FC9735000047
:102E10009385459A06C6EF00B02B22852244B24026
:102E200041016F005051011122CC2A842E8532C6F7
:102E30002EC406CEEF00B03F3246A24509CA8547F0
:102E4000630FF600F24062440145056182805840FC
:102E5000938745011CC398CD5CC0C0C9E5B71C4031
:102E60006388870083C6550303C7170263FAE60029
:102E7000D4431387450198C294CDD8C3DCC9D9B7D0
:102E80009C43F9BF011126CAB2842E86894522CC03
:102E900006CE2A8436C64D2DB24693074401231E22
:102EA00094001CCC5CC8A304D400F2406244D24419
:102EB000014505618280011126CA06CEAA8422CC72
:102EC0004AC82EC697D0FF1FE780402983D7C40188
:102ED00099CFFD17239EF40097D0FF1FE780C028ED
:102EE0000145F2406244D244424905618280B247C2
:102EF00099E797D0FF1FE78020277955DDB72A890A
:102F000097E0FF1FE780C08A2328050203C69400CC
:102F1000AA852A84138544013937B247635CF000DF
:102F200093044404700081452685EF00D05D26851A
:102F3000EF00D04C4A8597D0FF1FE780E02297E052
:102F4000FF1FE7800081085869BF011122CC26CA03
:102F50002A8406CE97D0FF1FE78040205C481307E5
:102F60004401AA846385E7021385C7FEEF0050374A
:102F70000544268597D0FF1FE780001F014505C83F
:102F80002AC697D0FF1FE780C07C32450DA083572B
:102F9000C40141677D176387E7008507231EF4009E
:102FA0000144C1BF97D0FF1FE780001C7555F24058
:102FB0006244D24405618280011126CAAE84AA858A
:102FC000154522CC06CE32C60D252A8405C53246CB
:102FD000930745011CCDA304C5005CC923109502CD
:102FE0001395040141810A05412648CC11E9228547
:102FF0008D2501442285F2406244D24405618280DD
:103000009307840223110402232204025CD41CD4FB
:10301000D5B7397106DE22DC26DA4ED652D42A84A0
:103020002E8A32C64AD856D25AD05ECE97D0FF1FCB
:10303000E7800078AA8997D0FF1FE7802012835786
:103040002402AA84639A0710B247014963970710C4
:1030500097D0FF1FE78040117955F2506254D25447
:103060004259B259225A925A025BF24B2161828034
:10307000B24723A8090291EB268597D0FF1FE7806E
:10308000A00EF95723A8F902C1BF03469400CE85CC
:103090005A85513BB247635FF00097D0FF1FE7802E
:1030A00060682A89700081455685EF00D0455685B5
:1030B000EF00D034268597D0FF1FE780E00A97D035
:1030C000FF1FE780006903A5090341F997D0FF1F9F
:1030D000E780C008B247AA84CA8B635FF00097D02C
:1030E000FF1FE7802064B247B30B2541CA973385A1
:1030F000A740634105062AC65E89035724022DDBDB
:1031000083576402544C13962700B2969442850765
:10311000C2072320DA0083560402C1832313F4027A
:1031200063E4D7002313040208547D172311E4023B
:1031300013048402630885023115EF00701A268596
:1031400097D0FF1FE780400297D0FF1FE7806060A5
:10315000014521B702C64DB70149130B4401938ABB
:10316000490461BF268597D0FF1FE780E0FFCDB7F8
:1031700083C741858507238AF184828083C741857F
:10318000FD17238AF18482800D47AA876376C700E2
:103190009377350091C7AA873E966397C7068280CA
:1031A00093F7F50F13978700D98F139707015D8F5A
:1031B000B308C500AA87BD463388F84063EB060311
:1031C00093574600C156B386D7029207AA970D4877
:1031D00036963383C700BE86B308D34063621803B4
:1031E00013572600F156B306D7020A07BA97369648
:1031F00065B798C3D8C398C7C10723AEE7FE6DBFB4
:10320000910623AEE6FEC9BF8507A38FB7FE71B74F
:103210000DC6AA8785050387F5FF85079306F6FF88
:10322000A38FE7FE09EB3E9685076393C700828074
:10323000A38F07FED5BF3686F1FE8280828039C912
:103240001377F50F972600009386465711C7BA9655
:1032500003C5060005058280C167938707F0E98FE3
:1032600089CB21851377F50F369703450700250590
:103270008280B707FF00E98F89CB41859377F50FEF
:10328000B69703C5070045058280618136950345E1
:103290000500650582809387C18598435C41BA9794
:1032A0006308F50283D6270085E6938681859442DC
:1032B0006380F6029386018694426394F60023A00D
:1032C000A186D44354C1DC43B306E540BA9794C702
:1032D0001445B307D7006301F50203D6270009EEB2
:1032E0001386018610426314A60023A0F186504184
:1032F000D0C35C413E9714C78280F199E14763F4E3
:10330000B7060D057199938785FE63EEA704898D35
:10331000938785FE23A4F18623AEA184411189679A
:1033200006C6D115938707EA1CC14CC123240500AA
:103330002E9523ACA184C967938707EA1CC14CC1B1
:103340000CC58146054697250000938525571385B2
:10335000015FEFF03FB39387C1859C43B24023A048
:10336000F186410182808280630405129387818601
:103370004111984322C41304350026C206C6719831
:10338000BE840145636E870CB1476373F40031441A
:10339000FD551385015FEFF01FB2938701869843B7
:1033A0009387C1858C438840B306B740B3078540F7
:1033B00063E8F6001385015FEFF03FB901454DA0CA
:1033C000B384D50003D6240083A8440061E2338689
:1033D000D840130846FF636B880A1383418693879E
:1033E000C186032E0300130384019C43636F6806A8
:1033F0001306C400369609633388C500130303EA35
:10340000232218012324D800232068008546D0C039
:103410002391D4008326480031056384A600AE962C
:1034200090C6B1073E9423A6818663748E0023A2C2
:1034300081868967938707EA2390F400631C9700CD
:1034400093878185944381470356270015EA99C3E2
:1034500023A0E1861385015FEFF03FAF1385C40021
:10346000B24022449244410182808546B297239122
:10347000D40023A6F186E37EFEFA23A2F18655BF8F
:10348000E307D7FC584385472E977DBFC6860DB707
:103490000145828049C59387C185984341114AC03F
:1034A00006C622C426C23E896365E50693878185E8
:1034B0009C436370F5062A84930445FFFD551385EC
:1034C000015FEFF05F9F8967938707EA231AF4FE95
:1034D000938701869C43231B04FE63F4F40023A01E
:1034E00091869387C186032784FF9C432685998F05
:1034F000032709003387E440BA9723A6F186613B8E
:103500002244B240924402491385015F41016FF0A9
:10351000DFA3B2402244924402494101828082806A
:1035200097D6FF1F9386C65E8147368711468C4229
:103530006396A50092073305F70082808507C106D0
:10354000E397C7FE01458280011122CC2A842E8593
:1035500006CE26CA4AC84EC652C4AE89328AC93778
:103560002A89252C83244900930749006394F40495
:10357000812C93E909F823043401D2852146228560
:10358000EFF01FC997D0FF1FE78040BD0327490018
:103590009307C400F2405CC358C42322F90004C856
:1035A0006244D2444249B249224A056117D3FF1FFF
:1035B000670083BB84405DBF411122C406C623045B
:1035C00005002A8497D0FF1FE78040B9544418486B
:1035D0009307C400B240D8C214C31CC85CC42244C0
:1035E000410117D3FF1F670023B8011106CE22CC7B
:1035F00026CA4AC84EC62E89AA891D37AA844845BC
:10360000EFF09FD62A8415CDD04481459104EFF088
:10361000BFB72146CA8523043401A30404002285D0
:10362000EFF01FBF97D0FF1FE78040B3984093078C
:10363000C4005CC358C49CC004C897D0FF1FE78077
:10364000A0B22285F2406244D2444249B2490561A7
:103650008280411106C622C4230405002A8497D023
:10366000FF1FE780A0AF544418489307C400D8C296
:1036700014C31CC85CC497D0FF1FE780E0AE22854E
:103680002244B240410139B5030585007D81828025
:10369000239C01869387016113870165DCC39CC36A
:1036A000A107E39DE7FE9D472388F18623AA0186B3
:1036B00023A201889387C18723A0F18823AEF186D6
:1036C0008280938741888843411106C6EFF03FB757
:1036D0007D1593173500138501613E9508419307C9
:1036E000C5FE210523AAF18697D0FF1FE78040A8D9
:1036F00001A0411122C406C62A8497D0FF1FE7808B
:10370000E0A58347440393064401B240C19B93E77D
:103710001700230AF4028347540313973700938753
:103720000161BA97D84314C318CCD4C31387418816
:103730005CC814431C5C2244D58F1CC3410117D3C1
:10374000FF1F670063A2411122C406C62A8497D0D6
:10375000FF1FE780A0A0184C544893074401D8C22B
:1037600014C35CC81CCC834754031397370093875A
:103770000161BA979843631BF7001C5C138741886B
:10378000184393C7F7FFF98F23A2F1882244B24070
:10379000410117D3FF1F6700239D411106C697D033
:1037A000FF1FE780A09B1387818783570700B240E4
:1037B00085072310F700410117D3FF1F6700C39A45
:1037C000411106C697D0FF1FE780409983D78187B4
:1037D000FD17C207C187239CF1866342F002239C38
:1037E000018697D0FF1FE7802098938741879C43ED
:1037F00089CFB240410117D3FF1F670083F5B24064
:10380000410117D3FF1F67002396B2404101828018
:10381000411122C426C22A8406C697D0FF1FE78022
:10382000E0933C58AA8499C3228582972244B240EF
:1038300026859244410117D3FF1F6700E39241118F
:103840009387418722C4804306C626C297D0FF1FB4
:10385000E780C090AA842285653F2285ED35914797
:10386000230AF40213054404992E2285313D85472D
:103870006312F5022285EFF03FD497D0FF1FE78057
:1038800040ED2244B24026859244410117D3FF1FE8
:103890006700838D9387C187944313074401D8C27F
:1038A00054C81CCC23AEE186C9BF5049144D411108
:1038B000795706C618D954C21307450190C218CDCE
:1038C00058C9053DB240410117D3FF1F670063E8A7
:1038D000797126D2B2842E86854506D622D442C876
:1038E0002A8446C636CE3ACC3ECAEFF0FFC56247C0
:1038F000D247F2461306440118D410CC50C804D065
:1039000054D05CD43E863A8593053002EFF0DF87D1
:103910005C5410544C500850F1173E969706000026
:10392000938626F2E5234248B24848CC230B040391
:1039300013054404A30A0403232C0402232E1403B6
:103940002320140523280402230A04022328040642
:10395000232A0406A286A285814701471706000094
:103960001306E6F4212CB2502254925401454561CD
:103970008280011156C2AE8AAA85054522CC26CA8C
:103980004AC84EC652C406CE328AB684BA893E8927
:10399000EFF0BFC52A8409C92685EFF0FF9C19ED19
:1039A0002285EFF01FCB01442285F2406244D244CD
:1039B0004249B249224A924A056182801307440172
:1039C00018CC58C82686232054032322440308D445
:1039D00044D493053002EFF02FFB5C5410544C504C
:1039E0000850F1173E9697060000938686E5392B1E
:1039F00048CC230B3403A30A3403232C0402232EC4
:103A000024032320240523280402230A0402232854
:103A10000406232A040681470147A28617060000F0
:103A20001306E6E8A28513054404892AB5BF834737
:103A300045030547BD8B6394E704411106C622C4C4
:103A400026C22A8497C0FF1FE7804071AA8422857E
:103A5000EFF07FCF8347440313054404C19B93E7F2
:103A60002700230AF402B12C268597C0FF1FE780A8
:103A7000A06FB240224492440145410182807D55AD
:103A80008280011106CE22CC26CA4AC82AC697C017
:103A9000FF1FE780A06C9387418780432A89228596
:103AA000793793044404700081452685A92C268526
:103AB000B1224A8597C0FF1FE780006B97D0FF1F98
:103AC000E78020C91858F9576314F7002328040227
:103AD000F2406244D244424901450561828055B7B3
:103AE000834745030947BD8B6395E704411106C62B
:103AF00022C426C22A8497C0FF1FE780206654484C
:103B0000184C93074401AA84D8C214C31CCC5CC8C7
:103B1000130544047D22268597C0FF1FE780C064FB
:103B20002285EFF01FBDB24022449244014541017D
:103B300082807D558280411106C683466503054714
:103B40003317D70018DD0947A30AD502230AE50277
:103B5000413F938741879C4389C797D0FF1FE780E8
:103B600040BFB2400145410182805449184D93073E
:103B70004501D8C214C31CCD5CC98280011126CA7C
:103B8000B2842E86A94522CC06CE2A8436C63AC4F3
:103B90003EC2EFF07F9B9247B2462247F99BA304B7
:103BA000F4009307440144CC14D02324040258D0D9
:103BB0001CCC5CC8F2406244D24405618280411151
:103BC00006C622C426C22A8497C0FF1FE780005978
:103BD000AA842285593F834794002685F99BA30434
:103BE000F40097C0FF1FE78020582285EFF0DF9C8C
:103BF000B24022449244014541018280411106C6EF
:103C000022C426C22A8497C0FF1FE7802055AA84B9
:103C10002285A13F83479400F99BA304F40097D029
:103C2000FF1FE78020B05C50034794003E9508D406
:103C3000118B9387418919C39387C188CC43370679
:103C400000801346E6FF98436395F50693868188C6
:103C500094422685850623A4D1889306440154C343
:103C600058C894C31CCC8347940093E71700A3045F
:103C7000F40097C0FF1FE780204F83479400918B8B
:103C80009DC303C721818547631FF7001385016525
:103C9000834745030947BD8B6397E700913597D06C
:103CA000FF1FE78000ABB24022449244014541012E
:103CB0008280544B6305D500898EE379D6F8BA87A4
:103CC00059B783479500858B8DCF411106C622C415
:103CD00026C22A8497C0FF1FE7804048AA84228515
:103CE0006935834794002685F99BA304F40097C0A7
:103CF000FF1FE7806047B2402244924401454101E2
:103D000082807D558280011122CC2EC606CE2A8467
:103D100032C497C0FF1FE7806044B245914763E11A
:103D2000B702172700001307E7B98A05BA959C4127
:103D30002246BA9782875C501CC219A01C425CD0F4
:103D400097C0FF1FE7804042F24062440145056191
:103D5000828083479400F59BA304F400D5B7834782
:103D6000940093E72700CDBF83479400858B99C3C8
:103D70008547D9B723200600E1B7397126DA240038
:103D80004AD84ED652D45AD05ECE06DE22DC56D267
:103D900026C626C4B709008097C0FF1FE780003CF5
:103DA0002A89138AC18893C9E9FF054B8D4B0324E7
:103DB0000A00630C440197D0FF1FE780A0965C487F
:103DC000930AC4FE1D8D63F2A9024A8597C0FF1FA6
:103DD000E7808039F2506254D2544259B259225A83
:103DE000925A025BF24B216182805685EFF0FFD739
:103DF000834754FF13F7270001E7F99BA30AF4FE5A
:103E0000A2474A85C0C31CC044C02389018022C484
:103E100097C0FF1FE78040351C444844829797C0F5
:103E2000FF1FE780A03323896181A2472A89E380AD
:103E300097F818405C405CC398C3834754FF40C068
:103E400000C013F73700E31477F7F99BA30AF4FED9
:103E50005685EFF0BFDAA1BF011126CAB704008072
:103E60004AC84EC606CE22CC1389C188FD5993C4D8
:103E7000E4FF97C0FF1FE780602E832709007D5471
:103E800063832701C04B97C0FF1FE780E02D631EAF
:103E9000340197D0FF1FE780A091EFF05FB997D072
:103EA000FF1FE780008BD13DE9B797D0FF1FE78068
:103EB00060873305A440E3E8A4FEEFF05FC2E5B7F6
:103EC00093874189DCC39CC38280411122C406C60A
:103ED0009387C18813840165DCC39CC32285A948EC
:103EE0001148930700201387816C81461706000054
:103EF0001306C6F6972500009385059EEFF05F9D9B
:103F000022852244B24041016FF0FFC21106719A2E
:103F10002A8837C7ADDE1305C6F8AA871307F7EE60
:103F20006319F6002328D6F82324B6FA232606F9C7
:103F3000828098C39107EDB7B7E700E04157238629
:103F4000E7402387E740056723A0E710116723A018
:103F5000E710B7F700E023A0070023A2070081467F
:103F600094C70147D8C71306F5FF90CB8146D4CB41
:103F70003D4798C30145828017E5FF1F130505D013
:103F8000828017050020130565CF82804111054509
:103F900006C622C4892C1305600497D0FF1FE78052
:103FA000409ACD2C9307803E3355F5027137EFE0F0
:103FB0005FCFD9372A84F137AA8522852244B240BF
:103FC00041016FF08FB3411106C6EFF00FFD1305ED
:103FD000F00FEFE09FC5C120A5289120EFF04FFE24
:103FE000B240014541018280411106C6EFE0DF8504
:103FF00017D5FF1F130585B0EFC0BFBBEFC05FD063
:104000002945EFF0DFADDDBF011122CC06CE1384D0
:10401000818A08407D566C00EFE0BFFFDDBF411193
:1040200095470947930600200146970500009385B0
:10403000E5FB172500001305658C06C6EFF07F939E
:1040400009C5B24041016FF01FAFB240410182800B
:10405000411101469545172500001305658806C6E0
:10406000EFE09FF523A4A18A854709479306001036
:10407000014697050000938565F917250000130593
:104080002587EFF01F8F09C5B24041016FF0BFAA2D
:10409000B240410182806FE07FAB914763EEB7028F
:1040A00017270000130747868A05BA959C41BA97DF
:1040B0008287B717004003A7470B1345F5FF698FA9
:1040C00023AAE70A03A7070B698F23A8E70A03A718
:1040D000070A798D23A0A70A8280B717004083A61C
:1040E000470B1347F5FFF98E23AAD70A83A6070BC0
:1040F000558D23A8A70A83A6070A758F23A0E70A70
:104100008280B717004003A7470B498F23AAE70A0D
:1041100003A7070B1345F5FF45BFB717004083A65C
:10412000470B1347F5FF758F23AAE70A03A7070A72
:10413000598D4DB7B717004003A7470B498FEDB70F
:10414000914763EEB702171700001307277D8A0512
:10415000BA959C41BA978287B717004003A7470DCD
:104160001345F5FF698F23AAE70C03A7070D698F95
:1041700023A8E70C03A7070C798D23A0A70C828046
:10418000B717004083A6470D1347F5FFF98E23AA02
:10419000D70C83A6070D558D23A8A70C83A6070C63
:1041A000758F23A0E70C8280B717004003A7470D47
:1041B000498F23AAE70C03A7070D1345F5FF45BF59
:1041C000B717004083A6470D1347F5FF758F23AA45
:1041D000E70C03A7070C598D4DB7B717004003A78D
:1041E000470D498FEDB721E1B71700401307700560
:1041F0002380E704130780FA2380E704010001000D
:1042000003C727021377F7072381E70203D70702C3
:10421000420741831377F79F420741832390E702C8
:10422000238007048280411106C622C426C24AC0E8
:10423000010037140040130970052300240593047E
:1042400080FA2300940401000100834724022945D9
:1042500093E707082301F4028357040293E707401A
:104260002310F40297D0FF1FE78060882300240505
:1042700023009404010001008357040293E7072000
:104280002310F40223000404B24022449244024961
:1042900041018280B717004003D587004205418164
:1042A0009377050491EB9377F5013755E8011305F2
:1042B00005803345F50282809377050C13070004CF
:1042C0006397E7009377F50137459C1CCDB72165CF
:1042D000130505D08280B7870040238007001307AD
:1042E000C0FC2386E700A386E70003D7C18A239892
:1042F000E70003D7018B239AE70003D7418B239C68
:10430000E70003D7818B239EE70089462381D702EC
:1043100049472383E7022385E7022387E7022389AE
:10432000D702A3810700130790022380E700B71686
:10433000004003D7A6011367070C239DE6007D57B5
:104340002383E700130710F8A380E7001D472381AC
:10435000E7008280B78700402382A70203C7670275
:104360001377C70F2383E7028280B7870040238437
:10437000A70203C7A7021377C70F2385E70282802E
:10438000B78700402386A70203C7E7021377C70F4A
:104390002387E702828039714AD813D945014ED666
:1043A00052D456D29399C50006DE22DC26DA5AD0C2
:1043B0005ECE1379F97F2A8A93D9C90093DAF50181
:1043C000630D090E9307F07F6304F9181354D501A8
:1043D0008E09B36934013704800033E489009314F3
:1043E0003500130919C08149814B13D74601139A2F
:1043F000C6001377F77FB285135ACA0013DBF601A4
:10440000630A07109307F07F6303F7049357D601FD
:104410000E0A33EA4701130717C0B7078000B367D6
:10442000FA00931536003A99814833C76A01BD46B0
:104430003A851308190063E63617171600001306AD
:10444000264F8A09B29983A60900B2968286B3677D
:10445000CA001309F97F6397071293E92900814580
:104460008948E1B701479307F07F3704080081448A
:104470003204D20731807E075D8C598CA285F250C0
:10448000625426854259D254B259225A925A025B3A
:10449000F24B216182805A853E84AE84C68B894767
:1044A000638BFB0E8D47E38FFBFA85472A87639A60
:1044B000FB3881470144814465BF33E4A90055CCF2
:1044C00036C632C46389092A4E8591292246B246EE
:1044D000AA87130755FF7544938487FF198CB399F6
:1044E000990033548A0033643401B3149A0013D70B
:1044F00046011309D0C0139AC6001377F77F33091A
:10450000F9408149814BB285135ACA0013DBF60189
:10451000E31A07EEB367CA00A9C7630E0A225285E1
:1045200032C4F52E22462A87930655FFF547930598
:1045300087FF958F331ABA00B357F600B3E74701E8
:10454000B315B6003309E9401309D9C08148F1BD5C
:1045500033E4A90001ECA14981441309F07F894BA0
:1045600069B593E9190081458548C1B54E84AA848F
:10457000B1491309F07F8D4B8DBD914981440149AB
:10458000854BA5B593E93900D2878D4879BD894718
:104590005685E399FBF02A879307F07F0144814415
:1045A000C1BDC16E1386FEFF93D6040113DE050163
:1045B000F18CF18D338695023383B6029358060150
:1045C00033059E021A95AA98B382C60363F3680066
:1045D000F692C16F1383FFFF33F5670093D3070192
:1045E000B3F76800C207337366003E933306950243
:1045F00093D80801B387A602135F0601B384930220
:10460000BE94FA94B38E760263F3F400FE9E416A80
:104610009307FAFF935F0401B376F400B3F9F40053
:104620007D8EC1803384D502C209338FD401B29903
:10463000CE98B307DE02935E0401B385BF02AE9746
:10464000BE9E330EFE0363F3BE00529EC167938588
:10465000F7FF33F6BE006D8C4206229693DE0E0104
:10466000B305D502769E3385AF0213D40501B38618
:10467000D302AA96A296B38FF30363F3A600BE9F5C
:1046800041657D15B3F7A600C2076D8DAA97B38566
:104690005800B3B93501FA97B2953384370133B670
:1046A000C500B30EC4013385CE0033343401B3B733
:1046B000E701C18F33BECE0113D406013336C500E6
:1046C0003E943366CE009394950032947E94B3E486
:1046D0006400260493567501B3349000DD8193176E
:1046E0009500CD8C558CDD8C9317740063DB07002F
:1046F00093D7140085889316F401DD8CD58C058042
:1047000042899307F93F6357F00893F6740081CE0E
:1047100093F6F40011466388C60093864400B3B450
:1047200096002694B6849316740063D80600B707E3
:1047300000FFFD177D8C930709409306E07F63CD52
:10474000F60E93D634009314D4012604D58C318010
:1047500093F7F77F31BB328532C4D12293065501DE
:10476000F147130705022246E3D2D7DC6115B317E0
:10477000A6008145C1BB652213075501F14593078A
:1047800005022246B246E3D8E5D461153314AA00E7
:104790008144B1BB85469D8EB1E71309E941B397CA
:1047A0002401B3D4D40033192401B337F000B36427
:1047B0009900DD8C93F77400B356D40081CF93F742
:1047C000F40011466388C70093874400B3B4970090
:1047D000A696BE849397860063D807048547014454
:1047E000814479B113068003E345D6CC7D46E35678
:1047F000D6FA0556B307F640930500023356F40087
:104800006387B6001309E943B3172401DD8CB33481
:104810009000D18C93F67400014499CA93F7F40088
:1048200011468146E392C7FA139496003180F6064A
:104830008D80D58C81472DB99307F07F0144814449
:1048400005B942897DBD93D74501B706100013878E
:10485000F6FF93F7F77F1306E03F6D8FFD81635CF2
:10486000F6001306D041635AF60037050080134561
:10487000F5FF2E95828001458280130630431D8E00
:104880007D48558F635DC80093063041B387F6407D
:10489000B357F7003305F040E5F13E8582809387FA
:1048A000D7BEB317F7003355C500C98FE5B741111F
:1048B00006C622C426C205CD9357F541B3C4A7004E
:1048C0009D8C2A842685A1289306E041898EA947DC
:1048D0007D8093F6F67F63CDA7022D47098FB3D76E
:1048E000E4005505B207B394A400B18329A00144A4
:1048F000814681478144B207D206B1837E04D58FB9
:10490000C18FB24022442685BE85924441018280F7
:104910005515B397A400B207B1838144E9BFC167BD
:10492000637EF5029307F00F1307000263ECA70004
:10493000971700009387C703AA9703C5070033059D
:10494000A740828021819717000093876702AA976A
:1049500003C5070061473305A7408280B707000100
:10496000636EF50061819717000093876700AA972F
:1049700003C5070021473305A7408280418197176F
:1049800000009387E7FEAA9703C507004147330558
:10499000A7408280B3C7A5008D8B3307C50081E790
:1049A0008D4763EEC700AA876370E50A83C60500DA
:1049B00085078505A38FD7FEE3EAE7FE828093761D
:1049C0003500AA8791CA83C6050085078505A38F90
:1049D000D7FE93F63700FDB79376C7FF138606FE22
:1049E00063F0C70683A3050083A2450083AF85005B
:1049F00003AFC50083AE050103AE450103A38501E6
:104A000083A8C5019385450223A0770003A8C5FFAD
:104A100023A2570023A4F70123A6E70123A8D70167
:104A200023AAC70123AC670023AE1701938747026F
:104A300023AE07FF75B790419107910523AEC7FEDE
:104A4000E3EBD7FEE3E4E7F68280B7070080197155
:104A500093C7F7FF3ECE3EC8C1772EC42ECC9387B6
:104A600087202C0086DE3ECA5124A24723800700FF
:104A7000F6500961828093874181B2862E86AA858D
:104A80008843E1B7DDC183A7C5FF411122C406C633
:104A900026C21384C5FF63D307003E94AA84EF00A7
:104AA00030119387C18B9C4381EF2322040023AEF6
:104AB000818A2244B2402685924441016F00700FE2
:104AC000637EF40014403307D4006396E7009843F4
:104AD000DC43369718C05CC0D9BFBA87D84319C326
:104AE000E37DE4FE94433386D700631F86001040C5
:104AF000B29694C33386D700E31DC7FA10435843D8
:104B0000B29694C3D8C375B76375C400B1479CC04F
:104B10004DB71040B306C4006316D7001443584382
:104B2000B29614C058C0C0C369B78280011126CAAA
:104B300093843500F19806CE22CC4AC84EC6A10413
:104B4000B14763F5F404B14463E4B4042A89EF0087
:104B500030069387C18B98433A8429E49387018C6C
:104B60009C4399E781454A85EF00407B23A0A18CB7
:104B7000A6854A85EF00807AFD5963193507B1474C
:104B80002320F9004A85EF00D00229A0E3DE04FAD1
:104B9000B1471CC10145F2406244D2444249B24986
:104BA000056182801C40858F63CF0702AD4663F6A6
:104BB000F6001CC03E9404C031A05C406313870221
:104BC00023AEF18A4A85EF00C07E1305B400930737
:104BD000440061993307F5405DDF3A94898F1CC02A
:104BE0005DBF5CC3C5B72287404085BF1304350055
:104BF0007198E30285FCB305A4404A850527E31CB0
:104C000035FBB5BF01114AC803A9850022CC52C4A7
:104C10005AC006CE26CA4EC656C22E84328B368A5B
:104C200063ED260983D7C50013F7074849C7044039
:104C30008C495848AA8AB389B4408D44B384E402AD
:104C40000947B3C4E402138716004E9763F3E400E8
:104C5000BA8493F70740C9C3A6855685C13D2A8902
:104C60000DE5B14723A0FA008357C4007D5593E7B3
:104C700007042316F400F2406244D2444249B24988
:104C8000224A924A024B056182800C484E86EFF020
:104C90007FD08357C40093F7F7B793E7070823162D
:104CA000F4002328240144C84E99B38434412320BE
:104CB000240104C4528963732A01528908404A8638
:104CC000DA8555251C440145B38727411CC41C4087
:104CD0003E992320240145B726865685E12D2A8951
:104CE00069F10C485685EFF0FFD9A5BF83D7C50001
:104CF000717126D34AD14ECF06D722D552CD56CB8D
:104D00005AC95EC762C566C393F70708AA892E8988
:104D1000B284B9C39C49A9E39305000436C6EFF0F9
:104D2000FFE02320A9002328A900B24615E1B147DE
:104D300023A0F9007D55BA502A549A540A59FA49C9
:104D40006A4ADA4A4A4BBA4B2A4C9A4C4D618280E5
:104D500093070004232AF90093070002A30CF10231
:104D60009307000302DA230DF10236CE930B5002B3
:104D7000971A0000938ACAD5054C294B268483478D
:104D8000040099C3639C7709B30C9440638E0C00B4
:104D9000E6862686CA854E85EFF0DFE6FD5763017D
:104DA000F51AD256E69636DA83470400638A071866
:104DB000FD579304140002D002D63ED202D4A301C0
:104DC000010682DC83C50400154656854123138401
:104DD0001400825731E513F7070109C713070002D2
:104DE000A301E10613F7870009C71307B002A30167
:104DF000E10683C604001307A002638BE602B257E4
:104E000026848146254603470400930514001307B2
:104E100007FD6374E6068DC63ED61DA0050485B762
:104E2000330555413315AC00C98F3ED0A28459BF1C
:104E3000724793064700184336CE634907023AD6B5
:104E4000034704009307E002631FF70403471400BD
:104E50009307A002631BF702F24709041387470078
:104E60009C433ACE63C107023ED235A83307E040E7
:104E700093E727003AD63ED0E1B7B387670385466C
:104E80002E84BA9749B7FD57C5B7050402D28146AB
:104E9000814725460347040093051400130707FDC7
:104EA0006376E606F1F2834504000D46171500000F
:104EB000130585C2612911CD971700009387C7C1DB
:104EC0001D8D93070004B397A700025505045D8D5F
:104ED0002AD083450400194617150000130505C0A4
:104EE00093041400230CB102952125C597B7FFFF49
:104EF0009387471195E70257F2471377071009CFB9
:104F000091073ECED257D2973EDA8DBDB387670365
:104F100085462E84BA97BDBF9D07E19BA107D5B7F3
:104F2000780897060000938626CE4A860C104E8598
:104F300097000000E7000000FD572A8AE314F5FC03
:104F40008357C9007D5593F70704E39607DE525552
:104F5000DDB3780897060000938606CB4A860C10CE
:104F60004E85012AD1BF797156CA9C49BA8A9845A3
:104F700022D426D24ECE52CC06D64AD05AC85EC6CD
:104F8000AA892E84B284368A63D3E700BA879CC08C
:104F90000347340419C385079CC01C4093F70702DC
:104FA00081C79C4089079CC00329040013796900CC
:104FB000631A0900130B9401FD5B5C449840998FC0
:104FC000634CF9041C408346340493F70702B3365C
:104FD000D000A5EB13063404D2854E85829AFD5786
:104FE0006303F5041C4011469840998B5444814456
:104FF0006397C700B384E64063D3040081441C4434
:1050000018486354F700998FBE94014969047D5B89
:1050100063982405014509A885465A86D2854E85A0
:10502000829A631E75017D55B250225492540259E2
:10503000F249624AD24A424BB24B4561828005092D
:10504000ADBF3307D40013060003A301C704034711
:10505000540493871600A2978906A381E7049DBF95
:1050600085462286D2854E85829AE30E65FB050928
:1050700045B7797122D426D24AD04ECE06D652CC2C
:1050800056CA5AC8B68983C68501930790063289E5
:10509000AA842E8413863504638DF60263E2D70654
:1050A000930780056388F61863EDD70063810622B5
:1050B00093073004638EF60A930A24042301D40470
:1050C000C9A0930730066385F60A93074006E39567
:1050D000F6FE1C40084393F6070893054500C5C635
:1050E0001C410CC363D807001307D002B307F0407C
:1050F000A301E404971600009386C69E29476DA875
:10510000930700076384F61663E5D7029307E0066A
:10511000638BF6189307F006E390F6FA0C401C43F5
:1051200013F80508138547006307080608C39C4366
:105130008DA893075007E383F6FE93078007638BE0
:10514000F61293073007E399F6F61C43D0418145E8
:105150009386470014C383AA07005685C52A01C554
:105160003305554148C05C401CC8A301040471A824
:105170001C43930A2404938647009C4314C32301D1
:10518000F4048547D5B793F607041C410CC3B9DA7C
:10519000C207C18781BF93F5050408C3C9D983D766
:1051A00007001307F0066388E60E97160000938643
:1051B00066932947A30104044C400CC463C5050051
:1051C00008406D9908C099E3B28A91CDB28AB3F5CF
:1051D000E702FD1AB69583C505002380BA00B3D552
:1051E000E70263F0E70CA147631EF7001C40858BC4
:1051F00091CB58401C4863C7E70093070003A38F77
:10520000FAFEFD1A3306564110C84E87CA86700052
:10521000A2852685EFF03FD57D5A631E450B7D554F
:10522000B250225492540259F249624AD24A424B35
:1052300045618280A382D504971600009386868AF2
:105240000C40084313F805081C411105630D0802C2
:1052500008C313F7150001C793E505020CC04147C9
:10526000B1FB0C4093F5F5FD0CC0A9B79C4193E749
:1052700007029CC193078007A302F404971600005D
:105280009386868775BF13F8050408C3E30308FCFB
:10529000C207C1837DBF971600009386A68421476D
:1052A00011BFAE872DB794411C43CC4913F80608B3
:1052B000138547006306080008C39C438CC301A8FC
:1052C00008C393F606049C43F5DA2390B70023281D
:1052D0000400B28A1DBF14485686CA852685829965
:1052E000E30F45F31C40898B8DE7B2474844E359EF
:1052F000F5F23E8535B785465686CA85268582995C
:10530000E30F65F1050A5C443247998FE345FAFEE5
:10531000E9BF014A930A94017D5BF5B7411122C4AC
:105320002A842E8597F7FF1F23AA079406C6CD2847
:10533000FD576319F50097F7FF1F938727949C4348
:1053400091C31CC0B24022444101828093F5F50F05
:105350002A966314C5000145828083470500E38DCA
:10536000B7FE0505FDB763F3A504B386C500637FEB
:10537000D5029345F6FF8147FD176393F5008280C0
:105380003387F600034807003387C7002A972300B6
:105390000701DDB73387F500834607003307F500C3
:1053A00085072300D700E317F6FE82808147E5BF1B
:1053B0008280828081E5B2856FF04FF7011122CCA7
:1053C00006CE26CA4AC84EC6328401EEEFF08FEBF5
:1053D0000149F24062444A85D2444249B2490561DA
:1053E0008280AE84AA891D202689E37485FEA28569
:1053F0004E85EFF0AFF32A8969DDA6852286EFF0AE
:105400006FD9A6854E85EFF0EFE7E1B783A7C5FF1B
:105410001385C7FF63D50700AA959C413E958280FE
:105420009387418C9C4391C73E9523A2A18C3E85D6
:10543000828097F7FF1F9387A7843E9523A2A18CB4
:105440003E85828035001E001F00200021002200C2
:10545000230024002500260027002D002E002A000E
:105460002B0014001A001A00150017001C00180069
:105470000C00120013002F0030003100390004002E
:105480001600070009000A000B000D000E000F00B7
:105490003300340000002800E1001D001B0006005E
:1054A0001900050011001000360037003800000018
:1054B000E5000000E000E300E200000000002C0036
:1054C000000000000000E600E70000007600E400B5
:1054D00001000100010001000100010001000100C4
:1054E00001000100010001000100010001000100B4
:1054F00001000100010001000100010001000100A4
:105500000100010001000100010001000100010093
:105510000100010001000100010001000100010083
:105520000000010001000100010001000100010074
:105530000100010001000100010000000100000065
:105540000100010001000000000001000000000057
:105550000000010001000000010001000100010045
:105560000100010001000100010001000100010033
:105570000100010001000100010001000100010023
:105580000100010001000100010001000100010013
:105590000100010001000100010001000100010003
:1055A00001000100010001000100010000000100F4
:1055B00001000100010001000100010001000100E3
:1055C00001000100010000000100000001000100D5
:1055D00001000000000001000000000000000100C8
:1055E00001000000010001000100010001000100B4
:1055F00001000100010001000100010001000100A3
:105600000100010001000100010001000100010092
:105610000100010001000100010001000100010082
:105620000100010001000100010001000100010072
:105630000100010001000100000001000100010063
:105640000100010001000100010001000100010052
:105650000100000001000000010001000100000045
:105660000000010000000000000001000100000037
:1056700001000100636F6E73756D65723A2025300D
:1056800034580A006B6579626F6172643A200000D9
:10569000253032582000000073797374656D3A200C
:1056A000253034580A0000000A20203031323334CB
:1056B00035363738394142434445460A0000000038
:1056C00025583A253031366225730A007CBBFFFF2E
:1056D0007CBBFFFFCEBBFFFFCEBBFFFF98BCFFFF35
:1056E000DABCFFFF56BCFFFF56BCFFFFFEBCFFFF4E
:1056F00056BCFFFF06BEFFFF06BEFFFF4CBFFFFF0D
:1057000056BCFFFF6CBFFFFF94BFFFFF6164645F87
:105710006B65795F6269743A2063616E27742061FA
:1057200064643A20253032580A00000064656C5FDA
:105730006B65795F6269743A2063616E27742064D7
:10574000656C3A20253032580A0000006D6F757381
:10575000656B6579205B62746E7C78207920762099
:10576000685D287265702F61636C293A205B0000C8
:1057700025303258000000007C0000002564000045
:105780005D280000257500002F000000290A000098
:10579000666666666666E63F1011121314151617E4
:1057A00018191F20212200006D61696E00000000A1
:1057B0007469646C650000000000010002000100D3
:1057C00003000100020001000400010002000100CA
:1057D00003000100020001000500010002000100B9
:1057E00003000100020001000400010002000100AA
:1057F0000300010002000100060001000200010098
:105800000300010002000100040001000200010089
:105810000300010002000100050001000200010078
:105820000300010002000100040001000200010069
:105830000300010002000100070001000200010056
:105840000300010002000100040001000200010049
:105850000300010002000100050001000200010038
:105860000300010002000100040001000200010029
:105870000300010002000100060001000200010017
:105880000300010002000100040001000200010009
:1058900003000100020001000500010002000100F8
:1058A00003000100020001000400010002000100E9
:1058B0000300010002000100686561700000000043
:1058C0007CE4FFFF76E4FFFF92E4FFFF9EE4FFFF2E
:1058D000A8E4FFFF74696D65720000006B62645F8D
:1058E0006576656E745F6D61696C00006B62645F04
:1058F0006576656E740000006B62645F7461736B43
:1059000000000000AEE7FFFFD6E7FFFFFEE7FFFF66
:1059100016E8FFFF30E8FFFF40E8FFFF68E8FFFF01
:1059200090E8FFFFA8E8FFFFC2E8FFFF76ECFFFF6B
:105930006CEBFFFF6CEBFFFF6AEBFFFF72EBFFFF0F
:1059400072EBFFFF38EBFFFF6AEBFFFF72EBFFFF2D
:1059500038EBFFFF72EBFFFF6AEBFFFF62ECFFFF2C
:1059600062ECFFFF62ECFFFF38EBFFFF0001020279
:1059700003030303040404040404040405050505E7
:1059800005050505050505050505050506060606C3
:1059900006060606060606060606060606060606A7
:1059A0000606060606060606060606060707070793
:1059B0000707070707070707070707070707070777
:1059C0000707070707070707070707070707070767
:1059D0000707070707070707070707070707070757
:1059E0000707070707070707070707070808080843
:1059F0000808080808080808080808080808080827
:105A00000808080808080808080808080808080816
:105A10000808080808080808080808080808080806
:105A200008080808080808080808080808080808F6
:105A300008080808080808080808080808080808E6
:105A400008080808080808080808080808080808D6
:105A500008080808080808080808080808080808C6
:105A600008080808080808080808080800000000D6
:105A70000000000000000000000000000000000026
:105A80000000000000000000000000000000000016
:105A90000000000000000000000000000000000006
:105AA00000000000000000000000000000000000F6
:105AB00000000000000000000000000000000000E6
:105AC000000000000000000000000000232D302B2B
:105AD00020000000686C4C00656667454647000082
